{"project/contracts/HospitalFinancials.sol":{"HospitalFinancials":{"abi":[{"inputs":[{"internalType":"address","name":"_assetToken","type":"address"},{"internalType":"address","name":"_healthToken","type":"address"},{"internalType":"address","name":"admin","type":"address"},{"internalType":"address","name":"_hospitalWallet","type":"address"}],"stateMutability":"nonpayable","type":"constructor"},{"inputs":[],"name":"AccessControlBadConfirmation","type":"error"},{"inputs":[{"internalType":"address","name":"account","type":"address"},{"internalType":"bytes32","name":"neededRole","type":"bytes32"}],"name":"AccessControlUnauthorizedAccount","type":"error"},{"inputs":[],"name":"ReentrancyGuardReentrantCall","type":"error"},{"anonymous":false,"inputs":[{"indexed":true,"internalType":"address","name":"patient","type":"address"},{"indexed":true,"internalType":"uint256","name":"depositId","type":"uint256"},{"indexed":false,"internalType":"uint256","name":"amountAT","type":"uint256"},{"indexed":false,"internalType":"uint256","name":"timestamp","type":"uint256"},{"indexed":false,"internalType":"string","name":"metadata","type":"string"}],"name":"AssetTokenMinted","type":"event"},{"anonymous":false,"inputs":[{"indexed":true,"internalType":"address","name":"patient","type":"address"},{"indexed":false,"internalType":"uint256","name":"amountHT","type":"uint256"},{"indexed":false,"internalType":"string","name":"serviceType","type":"string"},{"indexed":false,"internalType":"uint256","name":"timestamp","type":"uint256"}],"name":"HealthTokenRedeemed","type":"event"},{"anonymous":false,"inputs":[{"indexed":true,"internalType":"uint256","name":"tradeId","type":"uint256"},{"indexed":false,"internalType":"uint256","name":"totalProfit","type":"uint256"},{"indexed":false,"internalType":"uint256","name":"distributedHT","type":"uint256"},{"indexed":false,"internalType":"uint256","name":"timestamp","type":"uint256"}],"name":"ProfitDistributed","type":"event"},{"anonymous":false,"inputs":[{"indexed":true,"internalType":"bytes32","name":"role","type":"bytes32"},{"indexed":true,"internalType":"bytes32","name":"previousAdminRole","type":"bytes32"},{"indexed":true,"internalType":"bytes32","name":"newAdminRole","type":"bytes32"}],"name":"RoleAdminChanged","type":"event"},{"anonymous":false,"inputs":[{"indexed":true,"internalType":"bytes32","name":"role","type":"bytes32"},{"indexed":true,"internalType":"address","name":"account","type":"address"},{"indexed":true,"internalType":"address","name":"sender","type":"address"}],"name":"RoleGranted","type":"event"},{"anonymous":false,"inputs":[{"indexed":true,"internalType":"bytes32","name":"role","type":"bytes32"},{"indexed":true,"internalType":"address","name":"account","type":"address"},{"indexed":true,"internalType":"address","name":"sender","type":"address"}],"name":"RoleRevoked","type":"event"},{"anonymous":false,"inputs":[{"indexed":true,"internalType":"uint256","name":"tradeId","type":"uint256"},{"indexed":false,"internalType":"uint256","name":"investedAT","type":"uint256"},{"indexed":false,"internalType":"uint256","name":"profitEarned","type":"uint256"},{"indexed":false,"internalType":"uint256","name":"timestamp","type":"uint256"}],"name":"TradeRecorded","type":"event"},{"inputs":[],"name":"BANK_ROLE","outputs":[{"internalType":"bytes32","name":"","type":"bytes32"}],"stateMutability":"view","type":"function"},{"inputs":[],"name":"DEFAULT_ADMIN_ROLE","outputs":[{"internalType":"bytes32","name":"","type":"bytes32"}],"stateMutability":"view","type":"function"},{"inputs":[],"name":"FINANCE_ROLE","outputs":[{"internalType":"bytes32","name":"","type":"bytes32"}],"stateMutability":"view","type":"function"},{"inputs":[],"name":"assetToken","outputs":[{"internalType":"contract AssetToken","name":"","type":"address"}],"stateMutability":"view","type":"function"},{"inputs":[{"internalType":"uint256","name":"","type":"uint256"}],"name":"depositAmountAT","outputs":[{"internalType":"uint256","name":"","type":"uint256"}],"stateMutability":"view","type":"function"},{"inputs":[{"internalType":"uint256","name":"","type":"uint256"}],"name":"depositOwner","outputs":[{"internalType":"address","name":"","type":"address"}],"stateMutability":"view","type":"function"},{"inputs":[{"internalType":"uint256","name":"","type":"uint256"}],"name":"depositProcessed","outputs":[{"internalType":"bool","name":"","type":"bool"}],"stateMutability":"view","type":"function"},{"inputs":[{"internalType":"uint256","name":"tradeId","type":"uint256"},{"internalType":"address[]","name":"recipients","type":"address[]"},{"internalType":"uint256[]","name":"amountsHT","type":"uint256[]"}],"name":"distributeProfit","outputs":[],"stateMutability":"nonpayable","type":"function"},{"inputs":[{"internalType":"bytes32","name":"role","type":"bytes32"}],"name":"getRoleAdmin","outputs":[{"internalType":"bytes32","name":"","type":"bytes32"}],"stateMutability":"view","type":"function"},{"inputs":[{"internalType":"bytes32","name":"role","type":"bytes32"},{"internalType":"address","name":"account","type":"address"}],"name":"grantRole","outputs":[],"stateMutability":"nonpayable","type":"function"},{"inputs":[{"internalType":"bytes32","name":"role","type":"bytes32"},{"internalType":"address","name":"account","type":"address"}],"name":"hasRole","outputs":[{"internalType":"bool","name":"","type":"bool"}],"stateMutability":"view","type":"function"},{"inputs":[],"name":"healthToken","outputs":[{"internalType":"contract HealthToken","name":"","type":"address"}],"stateMutability":"view","type":"function"},{"inputs":[],"name":"hospitalWallet","outputs":[{"internalType":"address","name":"","type":"address"}],"stateMutability":"view","type":"function"},{"inputs":[{"internalType":"address","name":"patient","type":"address"},{"internalType":"uint256","name":"depositId","type":"uint256"},{"internalType":"uint256","name":"amountAT","type":"uint256"},{"internalType":"string","name":"metadata","type":"string"}],"name":"mintAssetToken","outputs":[],"stateMutability":"nonpayable","type":"function"},{"inputs":[],"name":"nextTradeId","outputs":[{"internalType":"uint256","name":"","type":"uint256"}],"stateMutability":"view","type":"function"},{"inputs":[{"internalType":"uint256","name":"investedAT","type":"uint256"},{"internalType":"uint256","name":"profit","type":"uint256"}],"name":"recordTrade","outputs":[{"internalType":"uint256","name":"","type":"uint256"}],"stateMutability":"nonpayable","type":"function"},{"inputs":[{"internalType":"address","name":"patient","type":"address"},{"internalType":"uint256","name":"amountHT","type":"uint256"},{"internalType":"string","name":"serviceType","type":"string"}],"name":"redeemHealthToken","outputs":[],"stateMutability":"nonpayable","type":"function"},{"inputs":[{"internalType":"bytes32","name":"role","type":"bytes32"},{"internalType":"address","name":"callerConfirmation","type":"address"}],"name":"renounceRole","outputs":[],"stateMutability":"nonpayable","type":"function"},{"inputs":[{"internalType":"bytes32","name":"role","type":"bytes32"},{"internalType":"address","name":"account","type":"address"}],"name":"revokeRole","outputs":[],"stateMutability":"nonpayable","type":"function"},{"inputs":[{"internalType":"bytes4","name":"interfaceId","type":"bytes4"}],"name":"supportsInterface","outputs":[{"internalType":"bool","name":"","type":"bool"}],"stateMutability":"view","type":"function"},{"inputs":[{"internalType":"uint256","name":"","type":"uint256"}],"name":"trades","outputs":[{"internalType":"uint256","name":"investedAT","type":"uint256"},{"internalType":"uint256","name":"profitEarned","type":"uint256"},{"internalType":"uint256","name":"timestamp","type":"uint256"}],"stateMutability":"view","type":"function"}],"evm":{"bytecode":{"linkReferences":{},"object":"60806040526001600855348015610014575f5ffd5b5060405161115938038061115983398101604081905261003391610177565b60018055600280546001600160a01b038087166001600160a01b03199283161790925560038054868416908316179055600480549284169290911691909117905561007e5f836100b3565b506100a97f940d6b1946ff1d2b5a9f1909219c3c81a370804b5ba0f91ec0828c99a2e6a681836100b3565b50505050506101c8565b5f828152602081815260408083206001600160a01b038516845290915281205460ff16610153575f838152602081815260408083206001600160a01b03861684529091529020805460ff1916600117905561010b3390565b6001600160a01b0316826001600160a01b0316847f2f8788117e7eff1d82e926ec794901d17c78024a50270940304540a733656f0d60405160405180910390a4506001610156565b505f5b92915050565b80516001600160a01b0381168114610172575f5ffd5b919050565b5f5f5f5f6080858703121561018a575f5ffd5b6101938561015c565b93506101a16020860161015c565b92506101af6040860161015c565b91506101bd6060860161015c565b905092959194509250565b610f84806101d55f395ff3fe608060405234801561000f575f5ffd5b5060043610610132575f3560e01c806336568abe116100b457806391d148541161007957806391d14854146102f55780639edd763414610308578063a217fddf14610327578063c6b0ac851461032e578063c7a7aab014610341578063d547741f14610363575f5ffd5b806336568abe146102a05780635cec902f146102b3578063641c39c9146102c657806370144330146102d9578063813ad083146102ec575f5ffd5b8063248a9ca3116100fa578063248a9ca31461021c57806328cf8bb01461023e578063298771e8146102665780632f2ff15d14610279578063349b59541461028c575f5ffd5b806301ffc9a7146101365780630e7ec4501461015e5780630eb71432146101735780631083f761146101a85780631e6c598e146101d3575b5f5ffd5b610149610144366004610bd4565b610376565b60405190151581526020015b60405180910390f35b61017161016c366004610c62565b6103ac565b005b61019a7f591fa5458fe051cc8c02c405479bd38e00713c98dbd3db209d982048f1e638fa81565b604051908152602001610155565b6002546101bb906001600160a01b031681565b6040516001600160a01b039091168152602001610155565b6102016101e1366004610cc5565b60096020525f908152604090208054600182015460029092015490919083565b60408051938452602084019290925290820152606001610155565b61019a61022a366004610cc5565b5f9081526020819052604090206001015490565b6101bb61024c366004610cc5565b60066020525f90815260409020546001600160a01b031681565b61019a610274366004610cdc565b6105d3565b610171610287366004610cfc565b6106ca565b61019a5f516020610f2f5f395f51905f5281565b6101716102ae366004610cfc565b6106f4565b6101716102c1366004610d26565b61072c565b6004546101bb906001600160a01b031681565b6101716102e7366004610dbd565b61082b565b61019a60085481565b610149610303366004610cfc565b610a1c565b61019a610316366004610cc5565b60076020525f908152604090205481565b61019a5f81565b6003546101bb906001600160a01b031681565b61014961034f366004610cc5565b60056020525f908152604090205460ff1681565b610171610371366004610cfc565b610a44565b5f6001600160e01b03198216637965db0b60e01b14806103a657506301ffc9a760e01b6001600160e01b03198316145b92915050565b7f591fa5458fe051cc8c02c405479bd38e00713c98dbd3db209d982048f1e638fa6103d681610a68565b6103de610a75565b5f8581526005602052604090205460ff16156104355760405162461bcd60e51b8152602060048201526011602482015270105b1c9958591e481c1c9bd8d95cdcd959607a1b60448201526064015b60405180910390fd5b5f84116104755760405162461bcd60e51b815260206004820152600e60248201526d16995c9bc8105508185b5bdd5b9d60921b604482015260640161042c565b5f858152600560209081526040808320805460ff191660011790556006825280832080546001600160a01b038b81166001600160a01b0319909216821790925560079093529281902087905560025490516340c10f1960e01b8152600481019290925260248201879052909116906340c10f19906044015f604051808303815f87803b158015610503575f5ffd5b505af1158015610515573d5f5f3e3d5ffd5b50506002546040516317ae9dc560e11b81526001600160a01b039091169250632f5d3b8a915061054d90889087908790600401610e4d565b5f604051808303815f87803b158015610564575f5ffd5b505af1158015610576573d5f5f3e3d5ffd5b5050505084866001600160a01b03167f44d1f88809e6af47cf8cd0b8f10fa1c2ed9aedd0c0fb7d09c5a7635c885d8448864287876040516105ba9493929190610e6f565b60405180910390a36105cb60018055565b505050505050565b5f5f516020610f2f5f395f51905f526105eb81610a68565b5f841161062e5760405162461bcd60e51b8152602060048201526011602482015270125b9d985b1a5908105508185b5bdd5b9d607a1b604482015260640161042c565b600880545f918261063e83610eac565b9091555060408051606080820183528882526020808301898152428486018181525f888152600985528790209551865591516001860155905160029094019390935583518a81529081018990529283019190915291925082917f38b5d7b0dff686b35d3f517288de21b8b4b6991f0948bcf8a26019dd9a923694910160405180910390a2949350505050565b5f828152602081905260409020600101546106e481610a68565b6106ee8383610a9f565b50505050565b6001600160a01b038116331461071d5760405163334bd91960e11b815260040160405180910390fd5b6107278282610b2e565b505050565b5f516020610f2f5f395f51905f5261074381610a68565b5f841161077c5760405162461bcd60e51b8152602060048201526007602482015266125b9d985b1a5960ca1b604482015260640161042c565b600354604051632770a7eb60e21b81526001600160a01b0387811660048301526024820187905290911690639dc29fac906044015f604051808303815f87803b1580156107c7575f5ffd5b505af11580156107d9573d5f5f3e3d5ffd5b50505050846001600160a01b03167ffc0199bf17c4717c8759abf223b055378a2188f763d674a93a023eea0998ac418585854260405161081c9493929190610ec4565b60405180910390a25050505050565b5f516020610f2f5f395f51905f5261084281610a68565b61084a610a75565b5f868152600960205260409020600201546108975760405162461bcd60e51b815260206004820152600d60248201526c496e76616c696420747261646560981b604482015260640161042c565b8382146108d85760405162461bcd60e51b815260206004820152600f60248201526e098cadccee8d040dad2e6dac2e8c6d608b1b604482015260640161042c565b5f805b858110156109bd576003546001600160a01b03166340c10f1988888481811061090657610906610eee565b905060200201602081019061091b9190610f02565b87878581811061092d5761092d610eee565b6040516001600160e01b031960e087901b1681526001600160a01b03909416600485015260200291909101356024830152506044015f604051808303815f87803b158015610979575f5ffd5b505af115801561098b573d5f5f3e3d5ffd5b505050508484828181106109a1576109a1610eee565b90506020020135826109b39190610f1b565b91506001016108db565b505f878152600960209081526040918290206001015482519081529081018390524281830152905188917f749b2ac8562325522ef7e1cba0d73b4a39482ab91e980ceb669fb9913a6f93fb919081900360600190a2506105cb60018055565b5f918252602082815260408084206001600160a01b0393909316845291905290205460ff1690565b5f82815260208190526040902060010154610a5e81610a68565b6106ee8383610b2e565b610a728133610b97565b50565b600260015403610a9857604051633ee5aeb560e01b815260040160405180910390fd5b6002600155565b5f610aaa8383610a1c565b610b27575f838152602081815260408083206001600160a01b03861684529091529020805460ff19166001179055610adf3390565b6001600160a01b0316826001600160a01b0316847f2f8788117e7eff1d82e926ec794901d17c78024a50270940304540a733656f0d60405160405180910390a45060016103a6565b505f6103a6565b5f610b398383610a1c565b15610b27575f838152602081815260408083206001600160a01b0386168085529252808320805460ff1916905551339286917ff6391f5c32d9c69d2a47ea670b442974b53935d1edc7fd64eb21e047a839171b9190a45060016103a6565b610ba18282610a1c565b610bd05760405163e2517d3f60e01b81526001600160a01b03821660048201526024810183905260440161042c565b5050565b5f60208284031215610be4575f5ffd5b81356001600160e01b031981168114610bfb575f5ffd5b9392505050565b80356001600160a01b0381168114610c18575f5ffd5b919050565b5f5f83601f840112610c2d575f5ffd5b50813567ffffffffffffffff811115610c44575f5ffd5b602083019150836020828501011115610c5b575f5ffd5b9250929050565b5f5f5f5f5f60808688031215610c76575f5ffd5b610c7f86610c02565b94506020860135935060408601359250606086013567ffffffffffffffff811115610ca8575f5ffd5b610cb488828901610c1d565b969995985093965092949392505050565b5f60208284031215610cd5575f5ffd5b5035919050565b5f5f60408385031215610ced575f5ffd5b50508035926020909101359150565b5f5f60408385031215610d0d575f5ffd5b82359150610d1d60208401610c02565b90509250929050565b5f5f5f5f60608587031215610d39575f5ffd5b610d4285610c02565b935060208501359250604085013567ffffffffffffffff811115610d64575f5ffd5b610d7087828801610c1d565b95989497509550505050565b5f5f83601f840112610d8c575f5ffd5b50813567ffffffffffffffff811115610da3575f5ffd5b6020830191508360208260051b8501011115610c5b575f5ffd5b5f5f5f5f5f60608688031215610dd1575f5ffd5b85359450602086013567ffffffffffffffff811115610dee575f5ffd5b610dfa88828901610d7c565b909550935050604086013567ffffffffffffffff811115610e19575f5ffd5b610cb488828901610d7c565b81835281816020850137505f828201602090810191909152601f909101601f19169091010190565b838152604060208201525f610e66604083018486610e25565b95945050505050565b848152836020820152606060408201525f610e8e606083018486610e25565b9695505050505050565b634e487b7160e01b5f52601160045260245ffd5b5f60018201610ebd57610ebd610e98565b5060010190565b848152606060208201525f610edd606083018587610e25565b905082604083015295945050505050565b634e487b7160e01b5f52603260045260245ffd5b5f60208284031215610f12575f5ffd5b610bfb82610c02565b808201808211156103a6576103a6610e9856fe940d6b1946ff1d2b5a9f1909219c3c81a370804b5ba0f91ec0828c99a2e6a681a2646970667358221220725314488379cd59ea891af253c9d20a86eb0db7a5827e8af6c63485b06564ba64736f6c634300081c0033","opcodes":"PUSH1 0x80 PUSH1 0x40 MSTORE PUSH1 0x1 PUSH1 0x8 SSTORE CALLVALUE DUP1 ISZERO PUSH2 0x14 JUMPI PUSH0 PUSH0 REVERT JUMPDEST POP PUSH1 0x40 MLOAD PUSH2 0x1159 CODESIZE SUB DUP1 PUSH2 0x1159 DUP4 CODECOPY DUP2 ADD PUSH1 0x40 DUP2 SWAP1 MSTORE PUSH2 0x33 SWAP2 PUSH2 0x177 JUMP JUMPDEST PUSH1 0x1 DUP1 SSTORE PUSH1 0x2 DUP1 SLOAD PUSH1 0x1 PUSH1 0x1 PUSH1 0xA0 SHL SUB DUP1 DUP8 AND PUSH1 0x1 PUSH1 0x1 PUSH1 0xA0 SHL SUB NOT SWAP3 DUP4 AND OR SWAP1 SWAP3 SSTORE PUSH1 0x3 DUP1 SLOAD DUP7 DUP5 AND SWAP1 DUP4 AND OR SWAP1 SSTORE PUSH1 0x4 DUP1 SLOAD SWAP3 DUP5 AND SWAP3 SWAP1 SWAP2 AND SWAP2 SWAP1 SWAP2 OR SWAP1 SSTORE PUSH2 0x7E PUSH0 DUP4 PUSH2 0xB3 JUMP JUMPDEST POP PUSH2 0xA9 PUSH32 0x940D6B1946FF1D2B5A9F1909219C3C81A370804B5BA0F91EC0828C99A2E6A681 DUP4 PUSH2 0xB3 JUMP JUMPDEST POP POP POP POP POP PUSH2 0x1C8 JUMP JUMPDEST PUSH0 DUP3 DUP2 MSTORE PUSH1 0x20 DUP2 DUP2 MSTORE PUSH1 0x40 DUP1 DUP4 KECCAK256 PUSH1 0x1 PUSH1 0x1 PUSH1 0xA0 SHL SUB DUP6 AND DUP5 MSTORE SWAP1 SWAP2 MSTORE DUP2 KECCAK256 SLOAD PUSH1 0xFF AND PUSH2 0x153 JUMPI PUSH0 DUP4 DUP2 MSTORE PUSH1 0x20 DUP2 DUP2 MSTORE PUSH1 0x40 DUP1 DUP4 KECCAK256 PUSH1 0x1 PUSH1 0x1 PUSH1 0xA0 SHL SUB DUP7 AND DUP5 MSTORE SWAP1 SWAP2 MSTORE SWAP1 KECCAK256 DUP1 SLOAD PUSH1 0xFF NOT AND PUSH1 0x1 OR SWAP1 SSTORE PUSH2 0x10B CALLER SWAP1 JUMP JUMPDEST PUSH1 0x1 PUSH1 0x1 PUSH1 0xA0 SHL SUB AND DUP3 PUSH1 0x1 PUSH1 0x1 PUSH1 0xA0 SHL SUB AND DUP5 PUSH32 0x2F8788117E7EFF1D82E926EC794901D17C78024A50270940304540A733656F0D PUSH1 0x40 MLOAD PUSH1 0x40 MLOAD DUP1 SWAP2 SUB SWAP1 LOG4 POP PUSH1 0x1 PUSH2 0x156 JUMP JUMPDEST POP PUSH0 JUMPDEST SWAP3 SWAP2 POP POP JUMP JUMPDEST DUP1 MLOAD PUSH1 0x1 PUSH1 0x1 PUSH1 0xA0 SHL SUB DUP2 AND DUP2 EQ PUSH2 0x172 JUMPI PUSH0 PUSH0 REVERT JUMPDEST SWAP2 SWAP1 POP JUMP JUMPDEST PUSH0 PUSH0 PUSH0 PUSH0 PUSH1 0x80 DUP6 DUP8 SUB SLT ISZERO PUSH2 0x18A JUMPI PUSH0 PUSH0 REVERT JUMPDEST PUSH2 0x193 DUP6 PUSH2 0x15C JUMP JUMPDEST SWAP4 POP PUSH2 0x1A1 PUSH1 0x20 DUP7 ADD PUSH2 0x15C JUMP JUMPDEST SWAP3 POP PUSH2 0x1AF PUSH1 0x40 DUP7 ADD PUSH2 0x15C JUMP JUMPDEST SWAP2 POP PUSH2 0x1BD PUSH1 0x60 DUP7 ADD PUSH2 0x15C JUMP JUMPDEST SWAP1 POP SWAP3 SWAP6 SWAP2 SWAP5 POP SWAP3 POP JUMP JUMPDEST PUSH2 0xF84 DUP1 PUSH2 0x1D5 PUSH0 CODECOPY PUSH0 RETURN INVALID PUSH1 0x80 PUSH1 0x40 MSTORE CALLVALUE DUP1 ISZERO PUSH2 0xF JUMPI PUSH0 PUSH0 REVERT JUMPDEST POP PUSH1 0x4 CALLDATASIZE LT PUSH2 0x132 JUMPI PUSH0 CALLDATALOAD PUSH1 0xE0 SHR DUP1 PUSH4 0x36568ABE GT PUSH2 0xB4 JUMPI DUP1 PUSH4 0x91D14854 GT PUSH2 0x79 JUMPI DUP1 PUSH4 0x91D14854 EQ PUSH2 0x2F5 JUMPI DUP1 PUSH4 0x9EDD7634 EQ PUSH2 0x308 JUMPI DUP1 PUSH4 0xA217FDDF EQ PUSH2 0x327 JUMPI DUP1 PUSH4 0xC6B0AC85 EQ PUSH2 0x32E JUMPI DUP1 PUSH4 0xC7A7AAB0 EQ PUSH2 0x341 JUMPI DUP1 PUSH4 0xD547741F EQ PUSH2 0x363 JUMPI PUSH0 PUSH0 REVERT JUMPDEST DUP1 PUSH4 0x36568ABE EQ PUSH2 0x2A0 JUMPI DUP1 PUSH4 0x5CEC902F EQ PUSH2 0x2B3 JUMPI DUP1 PUSH4 0x641C39C9 EQ PUSH2 0x2C6 JUMPI DUP1 PUSH4 0x70144330 EQ PUSH2 0x2D9 JUMPI DUP1 PUSH4 0x813AD083 EQ PUSH2 0x2EC JUMPI PUSH0 PUSH0 REVERT JUMPDEST DUP1 PUSH4 0x248A9CA3 GT PUSH2 0xFA JUMPI DUP1 PUSH4 0x248A9CA3 EQ PUSH2 0x21C JUMPI DUP1 PUSH4 0x28CF8BB0 EQ PUSH2 0x23E JUMPI DUP1 PUSH4 0x298771E8 EQ PUSH2 0x266 JUMPI DUP1 PUSH4 0x2F2FF15D EQ PUSH2 0x279 JUMPI DUP1 PUSH4 0x349B5954 EQ PUSH2 0x28C JUMPI PUSH0 PUSH0 REVERT JUMPDEST DUP1 PUSH4 0x1FFC9A7 EQ PUSH2 0x136 JUMPI DUP1 PUSH4 0xE7EC450 EQ PUSH2 0x15E JUMPI DUP1 PUSH4 0xEB71432 EQ PUSH2 0x173 JUMPI DUP1 PUSH4 0x1083F761 EQ PUSH2 0x1A8 JUMPI DUP1 PUSH4 0x1E6C598E EQ PUSH2 0x1D3 JUMPI JUMPDEST PUSH0 PUSH0 REVERT JUMPDEST PUSH2 0x149 PUSH2 0x144 CALLDATASIZE PUSH1 0x4 PUSH2 0xBD4 JUMP JUMPDEST PUSH2 0x376 JUMP JUMPDEST PUSH1 0x40 MLOAD SWAP1 ISZERO ISZERO DUP2 MSTORE PUSH1 0x20 ADD JUMPDEST PUSH1 0x40 MLOAD DUP1 SWAP2 SUB SWAP1 RETURN JUMPDEST PUSH2 0x171 PUSH2 0x16C CALLDATASIZE PUSH1 0x4 PUSH2 0xC62 JUMP JUMPDEST PUSH2 0x3AC JUMP JUMPDEST STOP JUMPDEST PUSH2 0x19A PUSH32 0x591FA5458FE051CC8C02C405479BD38E00713C98DBD3DB209D982048F1E638FA DUP2 JUMP JUMPDEST PUSH1 0x40 MLOAD SWAP1 DUP2 MSTORE PUSH1 0x20 ADD PUSH2 0x155 JUMP JUMPDEST PUSH1 0x2 SLOAD PUSH2 0x1BB SWAP1 PUSH1 0x1 PUSH1 0x1 PUSH1 0xA0 SHL SUB AND DUP2 JUMP JUMPDEST PUSH1 0x40 MLOAD PUSH1 0x1 PUSH1 0x1 PUSH1 0xA0 SHL SUB SWAP1 SWAP2 AND DUP2 MSTORE PUSH1 0x20 ADD PUSH2 0x155 JUMP JUMPDEST PUSH2 0x201 PUSH2 0x1E1 CALLDATASIZE PUSH1 0x4 PUSH2 0xCC5 JUMP JUMPDEST PUSH1 0x9 PUSH1 0x20 MSTORE PUSH0 SWAP1 DUP2 MSTORE PUSH1 0x40 SWAP1 KECCAK256 DUP1 SLOAD PUSH1 0x1 DUP3 ADD SLOAD PUSH1 0x2 SWAP1 SWAP3 ADD SLOAD SWAP1 SWAP2 SWAP1 DUP4 JUMP JUMPDEST PUSH1 0x40 DUP1 MLOAD SWAP4 DUP5 MSTORE PUSH1 0x20 DUP5 ADD SWAP3 SWAP1 SWAP3 MSTORE SWAP1 DUP3 ADD MSTORE PUSH1 0x60 ADD PUSH2 0x155 JUMP JUMPDEST PUSH2 0x19A PUSH2 0x22A CALLDATASIZE PUSH1 0x4 PUSH2 0xCC5 JUMP JUMPDEST PUSH0 SWAP1 DUP2 MSTORE PUSH1 0x20 DUP2 SWAP1 MSTORE PUSH1 0x40 SWAP1 KECCAK256 PUSH1 0x1 ADD SLOAD SWAP1 JUMP JUMPDEST PUSH2 0x1BB PUSH2 0x24C CALLDATASIZE PUSH1 0x4 PUSH2 0xCC5 JUMP JUMPDEST PUSH1 0x6 PUSH1 0x20 MSTORE PUSH0 SWAP1 DUP2 MSTORE PUSH1 0x40 SWAP1 KECCAK256 SLOAD PUSH1 0x1 PUSH1 0x1 PUSH1 0xA0 SHL SUB AND DUP2 JUMP JUMPDEST PUSH2 0x19A PUSH2 0x274 CALLDATASIZE PUSH1 0x4 PUSH2 0xCDC JUMP JUMPDEST PUSH2 0x5D3 JUMP JUMPDEST PUSH2 0x171 PUSH2 0x287 CALLDATASIZE PUSH1 0x4 PUSH2 0xCFC JUMP JUMPDEST PUSH2 0x6CA JUMP JUMPDEST PUSH2 0x19A PUSH0 MLOAD PUSH1 0x20 PUSH2 0xF2F PUSH0 CODECOPY PUSH0 MLOAD SWAP1 PUSH0 MSTORE DUP2 JUMP JUMPDEST PUSH2 0x171 PUSH2 0x2AE CALLDATASIZE PUSH1 0x4 PUSH2 0xCFC JUMP JUMPDEST PUSH2 0x6F4 JUMP JUMPDEST PUSH2 0x171 PUSH2 0x2C1 CALLDATASIZE PUSH1 0x4 PUSH2 0xD26 JUMP JUMPDEST PUSH2 0x72C JUMP JUMPDEST PUSH1 0x4 SLOAD PUSH2 0x1BB SWAP1 PUSH1 0x1 PUSH1 0x1 PUSH1 0xA0 SHL SUB AND DUP2 JUMP JUMPDEST PUSH2 0x171 PUSH2 0x2E7 CALLDATASIZE PUSH1 0x4 PUSH2 0xDBD JUMP JUMPDEST PUSH2 0x82B JUMP JUMPDEST PUSH2 0x19A PUSH1 0x8 SLOAD DUP2 JUMP JUMPDEST PUSH2 0x149 PUSH2 0x303 CALLDATASIZE PUSH1 0x4 PUSH2 0xCFC JUMP JUMPDEST PUSH2 0xA1C JUMP JUMPDEST PUSH2 0x19A PUSH2 0x316 CALLDATASIZE PUSH1 0x4 PUSH2 0xCC5 JUMP JUMPDEST PUSH1 0x7 PUSH1 0x20 MSTORE PUSH0 SWAP1 DUP2 MSTORE PUSH1 0x40 SWAP1 KECCAK256 SLOAD DUP2 JUMP JUMPDEST PUSH2 0x19A PUSH0 DUP2 JUMP JUMPDEST PUSH1 0x3 SLOAD PUSH2 0x1BB SWAP1 PUSH1 0x1 PUSH1 0x1 PUSH1 0xA0 SHL SUB AND DUP2 JUMP JUMPDEST PUSH2 0x149 PUSH2 0x34F CALLDATASIZE PUSH1 0x4 PUSH2 0xCC5 JUMP JUMPDEST PUSH1 0x5 PUSH1 0x20 MSTORE PUSH0 SWAP1 DUP2 MSTORE PUSH1 0x40 SWAP1 KECCAK256 SLOAD PUSH1 0xFF AND DUP2 JUMP JUMPDEST PUSH2 0x171 PUSH2 0x371 CALLDATASIZE PUSH1 0x4 PUSH2 0xCFC JUMP JUMPDEST PUSH2 0xA44 JUMP JUMPDEST PUSH0 PUSH1 0x1 PUSH1 0x1 PUSH1 0xE0 SHL SUB NOT DUP3 AND PUSH4 0x7965DB0B PUSH1 0xE0 SHL EQ DUP1 PUSH2 0x3A6 JUMPI POP PUSH4 0x1FFC9A7 PUSH1 0xE0 SHL PUSH1 0x1 PUSH1 0x1 PUSH1 0xE0 SHL SUB NOT DUP4 AND EQ JUMPDEST SWAP3 SWAP2 POP POP JUMP JUMPDEST PUSH32 0x591FA5458FE051CC8C02C405479BD38E00713C98DBD3DB209D982048F1E638FA PUSH2 0x3D6 DUP2 PUSH2 0xA68 JUMP JUMPDEST PUSH2 0x3DE PUSH2 0xA75 JUMP JUMPDEST PUSH0 DUP6 DUP2 MSTORE PUSH1 0x5 PUSH1 0x20 MSTORE PUSH1 0x40 SWAP1 KECCAK256 SLOAD PUSH1 0xFF AND ISZERO PUSH2 0x435 JUMPI PUSH1 0x40 MLOAD PUSH3 0x461BCD PUSH1 0xE5 SHL DUP2 MSTORE PUSH1 0x20 PUSH1 0x4 DUP3 ADD MSTORE PUSH1 0x11 PUSH1 0x24 DUP3 ADD MSTORE PUSH17 0x105B1C9958591E481C1C9BD8D95CDCD959 PUSH1 0x7A SHL PUSH1 0x44 DUP3 ADD MSTORE PUSH1 0x64 ADD JUMPDEST PUSH1 0x40 MLOAD DUP1 SWAP2 SUB SWAP1 REVERT JUMPDEST PUSH0 DUP5 GT PUSH2 0x475 JUMPI PUSH1 0x40 MLOAD PUSH3 0x461BCD PUSH1 0xE5 SHL DUP2 MSTORE PUSH1 0x20 PUSH1 0x4 DUP3 ADD MSTORE PUSH1 0xE PUSH1 0x24 DUP3 ADD MSTORE PUSH14 0x16995C9BC8105508185B5BDD5B9D PUSH1 0x92 SHL PUSH1 0x44 DUP3 ADD MSTORE PUSH1 0x64 ADD PUSH2 0x42C JUMP JUMPDEST PUSH0 DUP6 DUP2 MSTORE PUSH1 0x5 PUSH1 0x20 SWAP1 DUP2 MSTORE PUSH1 0x40 DUP1 DUP4 KECCAK256 DUP1 SLOAD PUSH1 0xFF NOT AND PUSH1 0x1 OR SWAP1 SSTORE PUSH1 0x6 DUP3 MSTORE DUP1 DUP4 KECCAK256 DUP1 SLOAD PUSH1 0x1 PUSH1 0x1 PUSH1 0xA0 SHL SUB DUP12 DUP2 AND PUSH1 0x1 PUSH1 0x1 PUSH1 0xA0 SHL SUB NOT SWAP1 SWAP3 AND DUP3 OR SWAP1 SWAP3 SSTORE PUSH1 0x7 SWAP1 SWAP4 MSTORE SWAP3 DUP2 SWAP1 KECCAK256 DUP8 SWAP1 SSTORE PUSH1 0x2 SLOAD SWAP1 MLOAD PUSH4 0x40C10F19 PUSH1 0xE0 SHL DUP2 MSTORE PUSH1 0x4 DUP2 ADD SWAP3 SWAP1 SWAP3 MSTORE PUSH1 0x24 DUP3 ADD DUP8 SWAP1 MSTORE SWAP1 SWAP2 AND SWAP1 PUSH4 0x40C10F19 SWAP1 PUSH1 0x44 ADD PUSH0 PUSH1 0x40 MLOAD DUP1 DUP4 SUB DUP2 PUSH0 DUP8 DUP1 EXTCODESIZE ISZERO DUP1 ISZERO PUSH2 0x503 JUMPI PUSH0 PUSH0 REVERT JUMPDEST POP GAS CALL ISZERO DUP1 ISZERO PUSH2 0x515 JUMPI RETURNDATASIZE PUSH0 PUSH0 RETURNDATACOPY RETURNDATASIZE PUSH0 REVERT JUMPDEST POP POP PUSH1 0x2 SLOAD PUSH1 0x40 MLOAD PUSH4 0x17AE9DC5 PUSH1 0xE1 SHL DUP2 MSTORE PUSH1 0x1 PUSH1 0x1 PUSH1 0xA0 SHL SUB SWAP1 SWAP2 AND SWAP3 POP PUSH4 0x2F5D3B8A SWAP2 POP PUSH2 0x54D SWAP1 DUP9 SWAP1 DUP8 SWAP1 DUP8 SWAP1 PUSH1 0x4 ADD PUSH2 0xE4D JUMP JUMPDEST PUSH0 PUSH1 0x40 MLOAD DUP1 DUP4 SUB DUP2 PUSH0 DUP8 DUP1 EXTCODESIZE ISZERO DUP1 ISZERO PUSH2 0x564 JUMPI PUSH0 PUSH0 REVERT JUMPDEST POP GAS CALL ISZERO DUP1 ISZERO PUSH2 0x576 JUMPI RETURNDATASIZE PUSH0 PUSH0 RETURNDATACOPY RETURNDATASIZE PUSH0 REVERT JUMPDEST POP POP POP POP DUP5 DUP7 PUSH1 0x1 PUSH1 0x1 PUSH1 0xA0 SHL SUB AND PUSH32 0x44D1F88809E6AF47CF8CD0B8F10FA1C2ED9AEDD0C0FB7D09C5A7635C885D8448 DUP7 TIMESTAMP DUP8 DUP8 PUSH1 0x40 MLOAD PUSH2 0x5BA SWAP5 SWAP4 SWAP3 SWAP2 SWAP1 PUSH2 0xE6F JUMP JUMPDEST PUSH1 0x40 MLOAD DUP1 SWAP2 SUB SWAP1 LOG3 PUSH2 0x5CB PUSH1 0x1 DUP1 SSTORE JUMP JUMPDEST POP POP POP POP POP POP JUMP JUMPDEST PUSH0 PUSH0 MLOAD PUSH1 0x20 PUSH2 0xF2F PUSH0 CODECOPY PUSH0 MLOAD SWAP1 PUSH0 MSTORE PUSH2 0x5EB DUP2 PUSH2 0xA68 JUMP JUMPDEST PUSH0 DUP5 GT PUSH2 0x62E JUMPI PUSH1 0x40 MLOAD PUSH3 0x461BCD PUSH1 0xE5 SHL DUP2 MSTORE PUSH1 0x20 PUSH1 0x4 DUP3 ADD MSTORE PUSH1 0x11 PUSH1 0x24 DUP3 ADD MSTORE PUSH17 0x125B9D985B1A5908105508185B5BDD5B9D PUSH1 0x7A SHL PUSH1 0x44 DUP3 ADD MSTORE PUSH1 0x64 ADD PUSH2 0x42C JUMP JUMPDEST PUSH1 0x8 DUP1 SLOAD PUSH0 SWAP2 DUP3 PUSH2 0x63E DUP4 PUSH2 0xEAC JUMP JUMPDEST SWAP1 SWAP2 SSTORE POP PUSH1 0x40 DUP1 MLOAD PUSH1 0x60 DUP1 DUP3 ADD DUP4 MSTORE DUP9 DUP3 MSTORE PUSH1 0x20 DUP1 DUP4 ADD DUP10 DUP2 MSTORE TIMESTAMP DUP5 DUP7 ADD DUP2 DUP2 MSTORE PUSH0 DUP9 DUP2 MSTORE PUSH1 0x9 DUP6 MSTORE DUP8 SWAP1 KECCAK256 SWAP6 MLOAD DUP7 SSTORE SWAP2 MLOAD PUSH1 0x1 DUP7 ADD SSTORE SWAP1 MLOAD PUSH1 0x2 SWAP1 SWAP5 ADD SWAP4 SWAP1 SWAP4 SSTORE DUP4 MLOAD DUP11 DUP2 MSTORE SWAP1 DUP2 ADD DUP10 SWAP1 MSTORE SWAP3 DUP4 ADD SWAP2 SWAP1 SWAP2 MSTORE SWAP2 SWAP3 POP DUP3 SWAP2 PUSH32 0x38B5D7B0DFF686B35D3F517288DE21B8B4B6991F0948BCF8A26019DD9A923694 SWAP2 ADD PUSH1 0x40 MLOAD DUP1 SWAP2 SUB SWAP1 LOG2 SWAP5 SWAP4 POP POP POP POP JUMP JUMPDEST PUSH0 DUP3 DUP2 MSTORE PUSH1 0x20 DUP2 SWAP1 MSTORE PUSH1 0x40 SWAP1 KECCAK256 PUSH1 0x1 ADD SLOAD PUSH2 0x6E4 DUP2 PUSH2 0xA68 JUMP JUMPDEST PUSH2 0x6EE DUP4 DUP4 PUSH2 0xA9F JUMP JUMPDEST POP POP POP POP JUMP JUMPDEST PUSH1 0x1 PUSH1 0x1 PUSH1 0xA0 SHL SUB DUP2 AND CALLER EQ PUSH2 0x71D JUMPI PUSH1 0x40 MLOAD PUSH4 0x334BD919 PUSH1 0xE1 SHL DUP2 MSTORE PUSH1 0x4 ADD PUSH1 0x40 MLOAD DUP1 SWAP2 SUB SWAP1 REVERT JUMPDEST PUSH2 0x727 DUP3 DUP3 PUSH2 0xB2E JUMP JUMPDEST POP POP POP JUMP JUMPDEST PUSH0 MLOAD PUSH1 0x20 PUSH2 0xF2F PUSH0 CODECOPY PUSH0 MLOAD SWAP1 PUSH0 MSTORE PUSH2 0x743 DUP2 PUSH2 0xA68 JUMP JUMPDEST PUSH0 DUP5 GT PUSH2 0x77C JUMPI PUSH1 0x40 MLOAD PUSH3 0x461BCD PUSH1 0xE5 SHL DUP2 MSTORE PUSH1 0x20 PUSH1 0x4 DUP3 ADD MSTORE PUSH1 0x7 PUSH1 0x24 DUP3 ADD MSTORE PUSH7 0x125B9D985B1A59 PUSH1 0xCA SHL PUSH1 0x44 DUP3 ADD MSTORE PUSH1 0x64 ADD PUSH2 0x42C JUMP JUMPDEST PUSH1 0x3 SLOAD PUSH1 0x40 MLOAD PUSH4 0x2770A7EB PUSH1 0xE2 SHL DUP2 MSTORE PUSH1 0x1 PUSH1 0x1 PUSH1 0xA0 SHL SUB DUP8 DUP2 AND PUSH1 0x4 DUP4 ADD MSTORE PUSH1 0x24 DUP3 ADD DUP8 SWAP1 MSTORE SWAP1 SWAP2 AND SWAP1 PUSH4 0x9DC29FAC SWAP1 PUSH1 0x44 ADD PUSH0 PUSH1 0x40 MLOAD DUP1 DUP4 SUB DUP2 PUSH0 DUP8 DUP1 EXTCODESIZE ISZERO DUP1 ISZERO PUSH2 0x7C7 JUMPI PUSH0 PUSH0 REVERT JUMPDEST POP GAS CALL ISZERO DUP1 ISZERO PUSH2 0x7D9 JUMPI RETURNDATASIZE PUSH0 PUSH0 RETURNDATACOPY RETURNDATASIZE PUSH0 REVERT JUMPDEST POP POP POP POP DUP5 PUSH1 0x1 PUSH1 0x1 PUSH1 0xA0 SHL SUB AND PUSH32 0xFC0199BF17C4717C8759ABF223B055378A2188F763D674A93A023EEA0998AC41 DUP6 DUP6 DUP6 TIMESTAMP PUSH1 0x40 MLOAD PUSH2 0x81C SWAP5 SWAP4 SWAP3 SWAP2 SWAP1 PUSH2 0xEC4 JUMP JUMPDEST PUSH1 0x40 MLOAD DUP1 SWAP2 SUB SWAP1 LOG2 POP POP POP POP POP JUMP JUMPDEST PUSH0 MLOAD PUSH1 0x20 PUSH2 0xF2F PUSH0 CODECOPY PUSH0 MLOAD SWAP1 PUSH0 MSTORE PUSH2 0x842 DUP2 PUSH2 0xA68 JUMP JUMPDEST PUSH2 0x84A PUSH2 0xA75 JUMP JUMPDEST PUSH0 DUP7 DUP2 MSTORE PUSH1 0x9 PUSH1 0x20 MSTORE PUSH1 0x40 SWAP1 KECCAK256 PUSH1 0x2 ADD SLOAD PUSH2 0x897 JUMPI PUSH1 0x40 MLOAD PUSH3 0x461BCD PUSH1 0xE5 SHL DUP2 MSTORE PUSH1 0x20 PUSH1 0x4 DUP3 ADD MSTORE PUSH1 0xD PUSH1 0x24 DUP3 ADD MSTORE PUSH13 0x496E76616C6964207472616465 PUSH1 0x98 SHL PUSH1 0x44 DUP3 ADD MSTORE PUSH1 0x64 ADD PUSH2 0x42C JUMP JUMPDEST DUP4 DUP3 EQ PUSH2 0x8D8 JUMPI PUSH1 0x40 MLOAD PUSH3 0x461BCD PUSH1 0xE5 SHL DUP2 MSTORE PUSH1 0x20 PUSH1 0x4 DUP3 ADD MSTORE PUSH1 0xF PUSH1 0x24 DUP3 ADD MSTORE PUSH15 0x98CADCCEE8D040DAD2E6DAC2E8C6D PUSH1 0x8B SHL PUSH1 0x44 DUP3 ADD MSTORE PUSH1 0x64 ADD PUSH2 0x42C JUMP JUMPDEST PUSH0 DUP1 JUMPDEST DUP6 DUP2 LT ISZERO PUSH2 0x9BD JUMPI PUSH1 0x3 SLOAD PUSH1 0x1 PUSH1 0x1 PUSH1 0xA0 SHL SUB AND PUSH4 0x40C10F19 DUP9 DUP9 DUP5 DUP2 DUP2 LT PUSH2 0x906 JUMPI PUSH2 0x906 PUSH2 0xEEE JUMP JUMPDEST SWAP1 POP PUSH1 0x20 MUL ADD PUSH1 0x20 DUP2 ADD SWAP1 PUSH2 0x91B SWAP2 SWAP1 PUSH2 0xF02 JUMP JUMPDEST DUP8 DUP8 DUP6 DUP2 DUP2 LT PUSH2 0x92D JUMPI PUSH2 0x92D PUSH2 0xEEE JUMP JUMPDEST PUSH1 0x40 MLOAD PUSH1 0x1 PUSH1 0x1 PUSH1 0xE0 SHL SUB NOT PUSH1 0xE0 DUP8 SWAP1 SHL AND DUP2 MSTORE PUSH1 0x1 PUSH1 0x1 PUSH1 0xA0 SHL SUB SWAP1 SWAP5 AND PUSH1 0x4 DUP6 ADD MSTORE PUSH1 0x20 MUL SWAP2 SWAP1 SWAP2 ADD CALLDATALOAD PUSH1 0x24 DUP4 ADD MSTORE POP PUSH1 0x44 ADD PUSH0 PUSH1 0x40 MLOAD DUP1 DUP4 SUB DUP2 PUSH0 DUP8 DUP1 EXTCODESIZE ISZERO DUP1 ISZERO PUSH2 0x979 JUMPI PUSH0 PUSH0 REVERT JUMPDEST POP GAS CALL ISZERO DUP1 ISZERO PUSH2 0x98B JUMPI RETURNDATASIZE PUSH0 PUSH0 RETURNDATACOPY RETURNDATASIZE PUSH0 REVERT JUMPDEST POP POP POP POP DUP5 DUP5 DUP3 DUP2 DUP2 LT PUSH2 0x9A1 JUMPI PUSH2 0x9A1 PUSH2 0xEEE JUMP JUMPDEST SWAP1 POP PUSH1 0x20 MUL ADD CALLDATALOAD DUP3 PUSH2 0x9B3 SWAP2 SWAP1 PUSH2 0xF1B JUMP JUMPDEST SWAP2 POP PUSH1 0x1 ADD PUSH2 0x8DB JUMP JUMPDEST POP PUSH0 DUP8 DUP2 MSTORE PUSH1 0x9 PUSH1 0x20 SWAP1 DUP2 MSTORE PUSH1 0x40 SWAP2 DUP3 SWAP1 KECCAK256 PUSH1 0x1 ADD SLOAD DUP3 MLOAD SWAP1 DUP2 MSTORE SWAP1 DUP2 ADD DUP4 SWAP1 MSTORE TIMESTAMP DUP2 DUP4 ADD MSTORE SWAP1 MLOAD DUP9 SWAP2 PUSH32 0x749B2AC8562325522EF7E1CBA0D73B4A39482AB91E980CEB669FB9913A6F93FB SWAP2 SWAP1 DUP2 SWAP1 SUB PUSH1 0x60 ADD SWAP1 LOG2 POP PUSH2 0x5CB PUSH1 0x1 DUP1 SSTORE JUMP JUMPDEST PUSH0 SWAP2 DUP3 MSTORE PUSH1 0x20 DUP3 DUP2 MSTORE PUSH1 0x40 DUP1 DUP5 KECCAK256 PUSH1 0x1 PUSH1 0x1 PUSH1 0xA0 SHL SUB SWAP4 SWAP1 SWAP4 AND DUP5 MSTORE SWAP2 SWAP1 MSTORE SWAP1 KECCAK256 SLOAD PUSH1 0xFF AND SWAP1 JUMP JUMPDEST PUSH0 DUP3 DUP2 MSTORE PUSH1 0x20 DUP2 SWAP1 MSTORE PUSH1 0x40 SWAP1 KECCAK256 PUSH1 0x1 ADD SLOAD PUSH2 0xA5E DUP2 PUSH2 0xA68 JUMP JUMPDEST PUSH2 0x6EE DUP4 DUP4 PUSH2 0xB2E JUMP JUMPDEST PUSH2 0xA72 DUP2 CALLER PUSH2 0xB97 JUMP JUMPDEST POP JUMP JUMPDEST PUSH1 0x2 PUSH1 0x1 SLOAD SUB PUSH2 0xA98 JUMPI PUSH1 0x40 MLOAD PUSH4 0x3EE5AEB5 PUSH1 0xE0 SHL DUP2 MSTORE PUSH1 0x4 ADD PUSH1 0x40 MLOAD DUP1 SWAP2 SUB SWAP1 REVERT JUMPDEST PUSH1 0x2 PUSH1 0x1 SSTORE JUMP JUMPDEST PUSH0 PUSH2 0xAAA DUP4 DUP4 PUSH2 0xA1C JUMP JUMPDEST PUSH2 0xB27 JUMPI PUSH0 DUP4 DUP2 MSTORE PUSH1 0x20 DUP2 DUP2 MSTORE PUSH1 0x40 DUP1 DUP4 KECCAK256 PUSH1 0x1 PUSH1 0x1 PUSH1 0xA0 SHL SUB DUP7 AND DUP5 MSTORE SWAP1 SWAP2 MSTORE SWAP1 KECCAK256 DUP1 SLOAD PUSH1 0xFF NOT AND PUSH1 0x1 OR SWAP1 SSTORE PUSH2 0xADF CALLER SWAP1 JUMP JUMPDEST PUSH1 0x1 PUSH1 0x1 PUSH1 0xA0 SHL SUB AND DUP3 PUSH1 0x1 PUSH1 0x1 PUSH1 0xA0 SHL SUB AND DUP5 PUSH32 0x2F8788117E7EFF1D82E926EC794901D17C78024A50270940304540A733656F0D PUSH1 0x40 MLOAD PUSH1 0x40 MLOAD DUP1 SWAP2 SUB SWAP1 LOG4 POP PUSH1 0x1 PUSH2 0x3A6 JUMP JUMPDEST POP PUSH0 PUSH2 0x3A6 JUMP JUMPDEST PUSH0 PUSH2 0xB39 DUP4 DUP4 PUSH2 0xA1C JUMP JUMPDEST ISZERO PUSH2 0xB27 JUMPI PUSH0 DUP4 DUP2 MSTORE PUSH1 0x20 DUP2 DUP2 MSTORE PUSH1 0x40 DUP1 DUP4 KECCAK256 PUSH1 0x1 PUSH1 0x1 PUSH1 0xA0 SHL SUB DUP7 AND DUP1 DUP6 MSTORE SWAP3 MSTORE DUP1 DUP4 KECCAK256 DUP1 SLOAD PUSH1 0xFF NOT AND SWAP1 SSTORE MLOAD CALLER SWAP3 DUP7 SWAP2 PUSH32 0xF6391F5C32D9C69D2A47EA670B442974B53935D1EDC7FD64EB21E047A839171B SWAP2 SWAP1 LOG4 POP PUSH1 0x1 PUSH2 0x3A6 JUMP JUMPDEST PUSH2 0xBA1 DUP3 DUP3 PUSH2 0xA1C JUMP JUMPDEST PUSH2 0xBD0 JUMPI PUSH1 0x40 MLOAD PUSH4 0xE2517D3F PUSH1 0xE0 SHL DUP2 MSTORE PUSH1 0x1 PUSH1 0x1 PUSH1 0xA0 SHL SUB DUP3 AND PUSH1 0x4 DUP3 ADD MSTORE PUSH1 0x24 DUP2 ADD DUP4 SWAP1 MSTORE PUSH1 0x44 ADD PUSH2 0x42C JUMP JUMPDEST POP POP JUMP JUMPDEST PUSH0 PUSH1 0x20 DUP3 DUP5 SUB SLT ISZERO PUSH2 0xBE4 JUMPI PUSH0 PUSH0 REVERT JUMPDEST DUP2 CALLDATALOAD PUSH1 0x1 PUSH1 0x1 PUSH1 0xE0 SHL SUB NOT DUP2 AND DUP2 EQ PUSH2 0xBFB JUMPI PUSH0 PUSH0 REVERT JUMPDEST SWAP4 SWAP3 POP POP POP JUMP JUMPDEST DUP1 CALLDATALOAD PUSH1 0x1 PUSH1 0x1 PUSH1 0xA0 SHL SUB DUP2 AND DUP2 EQ PUSH2 0xC18 JUMPI PUSH0 PUSH0 REVERT JUMPDEST SWAP2 SWAP1 POP JUMP JUMPDEST PUSH0 PUSH0 DUP4 PUSH1 0x1F DUP5 ADD SLT PUSH2 0xC2D JUMPI PUSH0 PUSH0 REVERT JUMPDEST POP DUP2 CALLDATALOAD PUSH8 0xFFFFFFFFFFFFFFFF DUP2 GT ISZERO PUSH2 0xC44 JUMPI PUSH0 PUSH0 REVERT JUMPDEST PUSH1 0x20 DUP4 ADD SWAP2 POP DUP4 PUSH1 0x20 DUP3 DUP6 ADD ADD GT ISZERO PUSH2 0xC5B JUMPI PUSH0 PUSH0 REVERT JUMPDEST SWAP3 POP SWAP3 SWAP1 POP JUMP JUMPDEST PUSH0 PUSH0 PUSH0 PUSH0 PUSH0 PUSH1 0x80 DUP7 DUP9 SUB SLT ISZERO PUSH2 0xC76 JUMPI PUSH0 PUSH0 REVERT JUMPDEST PUSH2 0xC7F DUP7 PUSH2 0xC02 JUMP JUMPDEST SWAP5 POP PUSH1 0x20 DUP7 ADD CALLDATALOAD SWAP4 POP PUSH1 0x40 DUP7 ADD CALLDATALOAD SWAP3 POP PUSH1 0x60 DUP7 ADD CALLDATALOAD PUSH8 0xFFFFFFFFFFFFFFFF DUP2 GT ISZERO PUSH2 0xCA8 JUMPI PUSH0 PUSH0 REVERT JUMPDEST PUSH2 0xCB4 DUP9 DUP3 DUP10 ADD PUSH2 0xC1D JUMP JUMPDEST SWAP7 SWAP10 SWAP6 SWAP9 POP SWAP4 SWAP7 POP SWAP3 SWAP5 SWAP4 SWAP3 POP POP POP JUMP JUMPDEST PUSH0 PUSH1 0x20 DUP3 DUP5 SUB SLT ISZERO PUSH2 0xCD5 JUMPI PUSH0 PUSH0 REVERT JUMPDEST POP CALLDATALOAD SWAP2 SWAP1 POP JUMP JUMPDEST PUSH0 PUSH0 PUSH1 0x40 DUP4 DUP6 SUB SLT ISZERO PUSH2 0xCED JUMPI PUSH0 PUSH0 REVERT JUMPDEST POP POP DUP1 CALLDATALOAD SWAP3 PUSH1 0x20 SWAP1 SWAP2 ADD CALLDATALOAD SWAP2 POP JUMP JUMPDEST PUSH0 PUSH0 PUSH1 0x40 DUP4 DUP6 SUB SLT ISZERO PUSH2 0xD0D JUMPI PUSH0 PUSH0 REVERT JUMPDEST DUP3 CALLDATALOAD SWAP2 POP PUSH2 0xD1D PUSH1 0x20 DUP5 ADD PUSH2 0xC02 JUMP JUMPDEST SWAP1 POP SWAP3 POP SWAP3 SWAP1 POP JUMP JUMPDEST PUSH0 PUSH0 PUSH0 PUSH0 PUSH1 0x60 DUP6 DUP8 SUB SLT ISZERO PUSH2 0xD39 JUMPI PUSH0 PUSH0 REVERT JUMPDEST PUSH2 0xD42 DUP6 PUSH2 0xC02 JUMP JUMPDEST SWAP4 POP PUSH1 0x20 DUP6 ADD CALLDATALOAD SWAP3 POP PUSH1 0x40 DUP6 ADD CALLDATALOAD PUSH8 0xFFFFFFFFFFFFFFFF DUP2 GT ISZERO PUSH2 0xD64 JUMPI PUSH0 PUSH0 REVERT JUMPDEST PUSH2 0xD70 DUP8 DUP3 DUP9 ADD PUSH2 0xC1D JUMP JUMPDEST SWAP6 SWAP9 SWAP5 SWAP8 POP SWAP6 POP POP POP POP JUMP JUMPDEST PUSH0 PUSH0 DUP4 PUSH1 0x1F DUP5 ADD SLT PUSH2 0xD8C JUMPI PUSH0 PUSH0 REVERT JUMPDEST POP DUP2 CALLDATALOAD PUSH8 0xFFFFFFFFFFFFFFFF DUP2 GT ISZERO PUSH2 0xDA3 JUMPI PUSH0 PUSH0 REVERT JUMPDEST PUSH1 0x20 DUP4 ADD SWAP2 POP DUP4 PUSH1 0x20 DUP3 PUSH1 0x5 SHL DUP6 ADD ADD GT ISZERO PUSH2 0xC5B JUMPI PUSH0 PUSH0 REVERT JUMPDEST PUSH0 PUSH0 PUSH0 PUSH0 PUSH0 PUSH1 0x60 DUP7 DUP9 SUB SLT ISZERO PUSH2 0xDD1 JUMPI PUSH0 PUSH0 REVERT JUMPDEST DUP6 CALLDATALOAD SWAP5 POP PUSH1 0x20 DUP7 ADD CALLDATALOAD PUSH8 0xFFFFFFFFFFFFFFFF DUP2 GT ISZERO PUSH2 0xDEE JUMPI PUSH0 PUSH0 REVERT JUMPDEST PUSH2 0xDFA DUP9 DUP3 DUP10 ADD PUSH2 0xD7C JUMP JUMPDEST SWAP1 SWAP6 POP SWAP4 POP POP PUSH1 0x40 DUP7 ADD CALLDATALOAD PUSH8 0xFFFFFFFFFFFFFFFF DUP2 GT ISZERO PUSH2 0xE19 JUMPI PUSH0 PUSH0 REVERT JUMPDEST PUSH2 0xCB4 DUP9 DUP3 DUP10 ADD PUSH2 0xD7C JUMP JUMPDEST DUP2 DUP4 MSTORE DUP2 DUP2 PUSH1 0x20 DUP6 ADD CALLDATACOPY POP PUSH0 DUP3 DUP3 ADD PUSH1 0x20 SWAP1 DUP2 ADD SWAP2 SWAP1 SWAP2 MSTORE PUSH1 0x1F SWAP1 SWAP2 ADD PUSH1 0x1F NOT AND SWAP1 SWAP2 ADD ADD SWAP1 JUMP JUMPDEST DUP4 DUP2 MSTORE PUSH1 0x40 PUSH1 0x20 DUP3 ADD MSTORE PUSH0 PUSH2 0xE66 PUSH1 0x40 DUP4 ADD DUP5 DUP7 PUSH2 0xE25 JUMP JUMPDEST SWAP6 SWAP5 POP POP POP POP POP JUMP JUMPDEST DUP5 DUP2 MSTORE DUP4 PUSH1 0x20 DUP3 ADD MSTORE PUSH1 0x60 PUSH1 0x40 DUP3 ADD MSTORE PUSH0 PUSH2 0xE8E PUSH1 0x60 DUP4 ADD DUP5 DUP7 PUSH2 0xE25 JUMP JUMPDEST SWAP7 SWAP6 POP POP POP POP POP POP JUMP JUMPDEST PUSH4 0x4E487B71 PUSH1 0xE0 SHL PUSH0 MSTORE PUSH1 0x11 PUSH1 0x4 MSTORE PUSH1 0x24 PUSH0 REVERT JUMPDEST PUSH0 PUSH1 0x1 DUP3 ADD PUSH2 0xEBD JUMPI PUSH2 0xEBD PUSH2 0xE98 JUMP JUMPDEST POP PUSH1 0x1 ADD SWAP1 JUMP JUMPDEST DUP5 DUP2 MSTORE PUSH1 0x60 PUSH1 0x20 DUP3 ADD MSTORE PUSH0 PUSH2 0xEDD PUSH1 0x60 DUP4 ADD DUP6 DUP8 PUSH2 0xE25 JUMP JUMPDEST SWAP1 POP DUP3 PUSH1 0x40 DUP4 ADD MSTORE SWAP6 SWAP5 POP POP POP POP POP JUMP JUMPDEST PUSH4 0x4E487B71 PUSH1 0xE0 SHL PUSH0 MSTORE PUSH1 0x32 PUSH1 0x4 MSTORE PUSH1 0x24 PUSH0 REVERT JUMPDEST PUSH0 PUSH1 0x20 DUP3 DUP5 SUB SLT ISZERO PUSH2 0xF12 JUMPI PUSH0 PUSH0 REVERT JUMPDEST PUSH2 0xBFB DUP3 PUSH2 0xC02 JUMP JUMPDEST DUP1 DUP3 ADD DUP1 DUP3 GT ISZERO PUSH2 0x3A6 JUMPI PUSH2 0x3A6 PUSH2 0xE98 JUMP INVALID SWAP5 0xD PUSH12 0x1946FF1D2B5A9F1909219C3C DUP2 LOG3 PUSH17 0x804B5BA0F91EC0828C99A2E6A681A26469 PUSH17 0x667358221220725314488379CD59EA891A CALLCODE MSTORE8 0xC9 0xD2 EXP DUP7 0xEB 0xD 0xB7 0xA5 DUP3 PUSH31 0x8AF6C63485B06564BA64736F6C634300081C00330000000000000000000000 "},"methodIdentifiers":{"BANK_ROLE()":"0eb71432","DEFAULT_ADMIN_ROLE()":"a217fddf","FINANCE_ROLE()":"349b5954","assetToken()":"1083f761","depositAmountAT(uint256)":"9edd7634","depositOwner(uint256)":"28cf8bb0","depositProcessed(uint256)":"c7a7aab0","distributeProfit(uint256,address[],uint256[])":"70144330","getRoleAdmin(bytes32)":"248a9ca3","grantRole(bytes32,address)":"2f2ff15d","hasRole(bytes32,address)":"91d14854","healthToken()":"c6b0ac85","hospitalWallet()":"641c39c9","mintAssetToken(address,uint256,uint256,string)":"0e7ec450","nextTradeId()":"813ad083","recordTrade(uint256,uint256)":"298771e8","redeemHealthToken(address,uint256,string)":"5cec902f","renounceRole(bytes32,address)":"36568abe","revokeRole(bytes32,address)":"d547741f","supportsInterface(bytes4)":"01ffc9a7","trades(uint256)":"1e6c598e"}}}}}