{
  "address": "0x9fE46736679d2D9a65F0992F2272dE9f3c7fa6e0",
  "abi": [
    {
      "inputs": [
        {
          "internalType": "address",
          "name": "_assetToken",
          "type": "address"
        },
        {
          "internalType": "address",
          "name": "_healthToken",
          "type": "address"
        },
        {
          "internalType": "address",
          "name": "admin",
          "type": "address"
        },
        {
          "internalType": "address",
          "name": "_hospitalWallet",
          "type": "address"
        }
      ],
      "stateMutability": "nonpayable",
      "type": "constructor"
    },
    {
      "inputs": [],
      "name": "AccessControlBadConfirmation",
      "type": "error"
    },
    {
      "inputs": [
        {
          "internalType": "address",
          "name": "account",
          "type": "address"
        },
        {
          "internalType": "bytes32",
          "name": "neededRole",
          "type": "bytes32"
        }
      ],
      "name": "AccessControlUnauthorizedAccount",
      "type": "error"
    },
    {
      "inputs": [],
      "name": "ReentrancyGuardReentrantCall",
      "type": "error"
    },
    {
      "anonymous": false,
      "inputs": [
        {
          "indexed": true,
          "internalType": "address",
          "name": "patient",
          "type": "address"
        },
        {
          "indexed": true,
          "internalType": "uint256",
          "name": "depositId",
          "type": "uint256"
        },
        {
          "indexed": false,
          "internalType": "uint256",
          "name": "amountAT",
          "type": "uint256"
        },
        {
          "indexed": false,
          "internalType": "uint256",
          "name": "timestamp",
          "type": "uint256"
        },
        {
          "indexed": false,
          "internalType": "string",
          "name": "metadata",
          "type": "string"
        }
      ],
      "name": "AssetTokenMinted",
      "type": "event"
    },
    {
      "anonymous": false,
      "inputs": [
        {
          "indexed": true,
          "internalType": "address",
          "name": "patient",
          "type": "address"
        },
        {
          "indexed": false,
          "internalType": "uint256",
          "name": "amountHT",
          "type": "uint256"
        },
        {
          "indexed": false,
          "internalType": "string",
          "name": "serviceType",
          "type": "string"
        },
        {
          "indexed": false,
          "internalType": "uint256",
          "name": "timestamp",
          "type": "uint256"
        }
      ],
      "name": "HealthTokenRedeemed",
      "type": "event"
    },
    {
      "anonymous": false,
      "inputs": [
        {
          "indexed": true,
          "internalType": "uint256",
          "name": "tradeId",
          "type": "uint256"
        },
        {
          "indexed": false,
          "internalType": "uint256",
          "name": "totalProfit",
          "type": "uint256"
        },
        {
          "indexed": false,
          "internalType": "uint256",
          "name": "distributedHT",
          "type": "uint256"
        },
        {
          "indexed": false,
          "internalType": "uint256",
          "name": "timestamp",
          "type": "uint256"
        }
      ],
      "name": "ProfitDistributed",
      "type": "event"
    },
    {
      "anonymous": false,
      "inputs": [
        {
          "indexed": true,
          "internalType": "bytes32",
          "name": "role",
          "type": "bytes32"
        },
        {
          "indexed": true,
          "internalType": "bytes32",
          "name": "previousAdminRole",
          "type": "bytes32"
        },
        {
          "indexed": true,
          "internalType": "bytes32",
          "name": "newAdminRole",
          "type": "bytes32"
        }
      ],
      "name": "RoleAdminChanged",
      "type": "event"
    },
    {
      "anonymous": false,
      "inputs": [
        {
          "indexed": true,
          "internalType": "bytes32",
          "name": "role",
          "type": "bytes32"
        },
        {
          "indexed": true,
          "internalType": "address",
          "name": "account",
          "type": "address"
        },
        {
          "indexed": true,
          "internalType": "address",
          "name": "sender",
          "type": "address"
        }
      ],
      "name": "RoleGranted",
      "type": "event"
    },
    {
      "anonymous": false,
      "inputs": [
        {
          "indexed": true,
          "internalType": "bytes32",
          "name": "role",
          "type": "bytes32"
        },
        {
          "indexed": true,
          "internalType": "address",
          "name": "account",
          "type": "address"
        },
        {
          "indexed": true,
          "internalType": "address",
          "name": "sender",
          "type": "address"
        }
      ],
      "name": "RoleRevoked",
      "type": "event"
    },
    {
      "anonymous": false,
      "inputs": [
        {
          "indexed": true,
          "internalType": "uint256",
          "name": "tradeId",
          "type": "uint256"
        },
        {
          "indexed": false,
          "internalType": "uint256",
          "name": "investedAT",
          "type": "uint256"
        },
        {
          "indexed": false,
          "internalType": "uint256",
          "name": "profitEarned",
          "type": "uint256"
        },
        {
          "indexed": false,
          "internalType": "uint256",
          "name": "timestamp",
          "type": "uint256"
        }
      ],
      "name": "TradeRecorded",
      "type": "event"
    },
    {
      "inputs": [],
      "name": "DEFAULT_ADMIN_ROLE",
      "outputs": [
        {
          "internalType": "bytes32",
          "name": "",
          "type": "bytes32"
        }
      ],
      "stateMutability": "view",
      "type": "function"
    },
    {
      "inputs": [],
      "name": "assetToken",
      "outputs": [
        {
          "internalType": "contract AssetToken",
          "name": "",
          "type": "address"
        }
      ],
      "stateMutability": "view",
      "type": "function"
    },
    {
      "inputs": [
        {
          "internalType": "uint256",
          "name": "",
          "type": "uint256"
        }
      ],
      "name": "depositAmountAT",
      "outputs": [
        {
          "internalType": "uint256",
          "name": "",
          "type": "uint256"
        }
      ],
      "stateMutability": "view",
      "type": "function"
    },
    {
      "inputs": [
        {
          "internalType": "uint256",
          "name": "",
          "type": "uint256"
        }
      ],
      "name": "depositOwner",
      "outputs": [
        {
          "internalType": "address",
          "name": "",
          "type": "address"
        }
      ],
      "stateMutability": "view",
      "type": "function"
    },
    {
      "inputs": [
        {
          "internalType": "uint256",
          "name": "",
          "type": "uint256"
        }
      ],
      "name": "depositProcessed",
      "outputs": [
        {
          "internalType": "bool",
          "name": "",
          "type": "bool"
        }
      ],
      "stateMutability": "view",
      "type": "function"
    },
    {
      "inputs": [
        {
          "internalType": "uint256",
          "name": "tradeId",
          "type": "uint256"
        },
        {
          "internalType": "address[]",
          "name": "recipients",
          "type": "address[]"
        },
        {
          "internalType": "uint256[]",
          "name": "amountsHT",
          "type": "uint256[]"
        }
      ],
      "name": "distributeProfit",
      "outputs": [],
      "stateMutability": "nonpayable",
      "type": "function"
    },
    {
      "inputs": [
        {
          "internalType": "bytes32",
          "name": "role",
          "type": "bytes32"
        }
      ],
      "name": "getRoleAdmin",
      "outputs": [
        {
          "internalType": "bytes32",
          "name": "",
          "type": "bytes32"
        }
      ],
      "stateMutability": "view",
      "type": "function"
    },
    {
      "inputs": [
        {
          "internalType": "bytes32",
          "name": "role",
          "type": "bytes32"
        },
        {
          "internalType": "address",
          "name": "account",
          "type": "address"
        }
      ],
      "name": "grantRole",
      "outputs": [],
      "stateMutability": "nonpayable",
      "type": "function"
    },
    {
      "inputs": [
        {
          "internalType": "bytes32",
          "name": "role",
          "type": "bytes32"
        },
        {
          "internalType": "address",
          "name": "account",
          "type": "address"
        }
      ],
      "name": "hasRole",
      "outputs": [
        {
          "internalType": "bool",
          "name": "",
          "type": "bool"
        }
      ],
      "stateMutability": "view",
      "type": "function"
    },
    {
      "inputs": [],
      "name": "healthToken",
      "outputs": [
        {
          "internalType": "contract HealthToken",
          "name": "",
          "type": "address"
        }
      ],
      "stateMutability": "view",
      "type": "function"
    },
    {
      "inputs": [],
      "name": "hospitalWallet",
      "outputs": [
        {
          "internalType": "address",
          "name": "",
          "type": "address"
        }
      ],
      "stateMutability": "view",
      "type": "function"
    },
    {
      "inputs": [
        {
          "internalType": "address",
          "name": "patient",
          "type": "address"
        },
        {
          "internalType": "uint256",
          "name": "depositId",
          "type": "uint256"
        },
        {
          "internalType": "uint256",
          "name": "amountAT",
          "type": "uint256"
        },
        {
          "internalType": "string",
          "name": "metadata",
          "type": "string"
        }
      ],
      "name": "mintAssetToken",
      "outputs": [],
      "stateMutability": "nonpayable",
      "type": "function"
    },
    {
      "inputs": [],
      "name": "nextTradeId",
      "outputs": [
        {
          "internalType": "uint256",
          "name": "",
          "type": "uint256"
        }
      ],
      "stateMutability": "view",
      "type": "function"
    },
    {
      "inputs": [
        {
          "internalType": "uint256",
          "name": "investedAT",
          "type": "uint256"
        },
        {
          "internalType": "uint256",
          "name": "profit",
          "type": "uint256"
        }
      ],
      "name": "recordTrade",
      "outputs": [
        {
          "internalType": "uint256",
          "name": "",
          "type": "uint256"
        }
      ],
      "stateMutability": "nonpayable",
      "type": "function"
    },
    {
      "inputs": [
        {
          "internalType": "address",
          "name": "patient",
          "type": "address"
        },
        {
          "internalType": "uint256",
          "name": "amountHT",
          "type": "uint256"
        },
        {
          "internalType": "string",
          "name": "serviceType",
          "type": "string"
        }
      ],
      "name": "redeemHealthToken",
      "outputs": [],
      "stateMutability": "nonpayable",
      "type": "function"
    },
    {
      "inputs": [
        {
          "internalType": "bytes32",
          "name": "role",
          "type": "bytes32"
        },
        {
          "internalType": "address",
          "name": "callerConfirmation",
          "type": "address"
        }
      ],
      "name": "renounceRole",
      "outputs": [],
      "stateMutability": "nonpayable",
      "type": "function"
    },
    {
      "inputs": [
        {
          "internalType": "bytes32",
          "name": "role",
          "type": "bytes32"
        },
        {
          "internalType": "address",
          "name": "account",
          "type": "address"
        }
      ],
      "name": "revokeRole",
      "outputs": [],
      "stateMutability": "nonpayable",
      "type": "function"
    },
    {
      "inputs": [
        {
          "internalType": "bytes4",
          "name": "interfaceId",
          "type": "bytes4"
        }
      ],
      "name": "supportsInterface",
      "outputs": [
        {
          "internalType": "bool",
          "name": "",
          "type": "bool"
        }
      ],
      "stateMutability": "view",
      "type": "function"
    },
    {
      "inputs": [
        {
          "internalType": "uint256",
          "name": "",
          "type": "uint256"
        }
      ],
      "name": "trades",
      "outputs": [
        {
          "internalType": "uint256",
          "name": "investedAT",
          "type": "uint256"
        },
        {
          "internalType": "uint256",
          "name": "profitEarned",
          "type": "uint256"
        },
        {
          "internalType": "uint256",
          "name": "timestamp",
          "type": "uint256"
        }
      ],
      "stateMutability": "view",
      "type": "function"
    }
  ],
  "transactionHash": "0x2bcc17ac58ae660ddcba4dfc7f0fcafd894b0c8c1d1181c5134f738439dc2cc1",
  "args": [
    "0x5FbDB2315678afecb367f032d93F642f64180aa3",
    "0xe7f1725E7734CE288F8367e1Bb143E90bb3F0512",
    "0xf39Fd6e51aad88F6F4ce6aB8827279cffFb92266",
    "0xf39Fd6e51aad88F6F4ce6aB8827279cffFb92266"
  ],
  "numDeployments": 1,
  "solcInputHash": "8607ff8e20441d84a4ee642f3630993e",
  "bytecode": "0x6080604052600160085534801561001557600080fd5b506040516110e43803806110e483398101604081905261003491610152565b60018055600280546001600160a01b038087166001600160a01b03199283161790925560038054868416908316179055600480549284169290911691909117905561008060008361008a565b50505050506101a6565b6000828152602081815260408083206001600160a01b038516845290915281205460ff1661012c576000838152602081815260408083206001600160a01b03861684529091529020805460ff191660011790556100e43390565b6001600160a01b0316826001600160a01b0316847f2f8788117e7eff1d82e926ec794901d17c78024a50270940304540a733656f0d60405160405180910390a4506001610130565b5060005b92915050565b80516001600160a01b038116811461014d57600080fd5b919050565b6000806000806080858703121561016857600080fd5b61017185610136565b935061017f60208601610136565b925061018d60408601610136565b915061019b60608601610136565b905092959194509250565b610f2f806101b56000396000f3fe608060405234801561001057600080fd5b50600436106101215760003560e01c80635cec902f116100ad5780639edd7634116100715780639edd7634146102c0578063a217fddf146102e0578063c6b0ac85146102e8578063c7a7aab0146102fb578063d547741f1461031e57600080fd5b80635cec902f1461026b578063641c39c91461027e5780637014433014610291578063813ad083146102a457806391d14854146102ad57600080fd5b8063248a9ca3116100f4578063248a9ca3146101d857806328cf8bb014610209578063298771e8146102325780632f2ff15d1461024557806336568abe1461025857600080fd5b806301ffc9a7146101265780630e7ec4501461014e5780631083f761146101635780631e6c598e1461018e575b600080fd5b610139610134366004610b73565b610331565b60405190151581526020015b60405180910390f35b61016161015c366004610c09565b610368565b005b600254610176906001600160a01b031681565b6040516001600160a01b039091168152602001610145565b6101bd61019c366004610c71565b60096020526000908152604090208054600182015460029092015490919083565b60408051938452602084019290925290820152606001610145565b6101fb6101e6366004610c71565b60009081526020819052604090206001015490565b604051908152602001610145565b610176610217366004610c71565b6006602052600090815260409020546001600160a01b031681565b6101fb610240366004610c8a565b61057d565b610161610253366004610cac565b61066b565b610161610266366004610cac565b610696565b610161610279366004610cd8565b6106ce565b600454610176906001600160a01b031681565b61016161029f366004610d77565b6107c7565b6101fb60085481565b6101396102bb366004610cac565b6109b4565b6101fb6102ce366004610c71565b60076020526000908152604090205481565b6101fb600081565b600354610176906001600160a01b031681565b610139610309366004610c71565b60056020526000908152604090205460ff1681565b61016161032c366004610cac565b6109dd565b60006001600160e01b03198216637965db0b60e01b148061036257506301ffc9a760e01b6001600160e01b03198316145b92915050565b600061037381610a02565b61037b610a0f565b60008581526005602052604090205460ff16156103d35760405162461bcd60e51b8152602060048201526011602482015270105b1c9958591e481c1c9bd8d95cdcd959607a1b60448201526064015b60405180910390fd5b600084116104145760405162461bcd60e51b815260206004820152600e60248201526d16995c9bc8105508185b5bdd5b9d60921b60448201526064016103ca565b6000858152600560209081526040808320805460ff191660011790556006825280832080546001600160a01b038b81166001600160a01b0319909216821790925560079093529281902087905560025490516340c10f1960e01b8152600481019290925260248201879052909116906340c10f1990604401600060405180830381600087803b1580156104a657600080fd5b505af11580156104ba573d6000803e3d6000fd5b50506002546040516317ae9dc560e11b81526001600160a01b039091169250632f5d3b8a91506104f290889087908790600401610e0e565b600060405180830381600087803b15801561050c57600080fd5b505af1158015610520573d6000803e3d6000fd5b5050505084866001600160a01b03167f44d1f88809e6af47cf8cd0b8f10fa1c2ed9aedd0c0fb7d09c5a7635c885d8448864287876040516105649493929190610e31565b60405180910390a361057560018055565b505050505050565b60008061058981610a02565b600084116105cd5760405162461bcd60e51b8152602060048201526011602482015270125b9d985b1a5908105508185b5bdd5b9d607a1b60448201526064016103ca565b60088054600091826105de83610e71565b9091555060408051606080820183528882526020808301898152428486018181526000888152600985528790209551865591516001860155905160029094019390935583518a81529081018990529283019190915291925082917f38b5d7b0dff686b35d3f517288de21b8b4b6991f0948bcf8a26019dd9a923694910160405180910390a2949350505050565b60008281526020819052604090206001015461068681610a02565b6106908383610a39565b50505050565b6001600160a01b03811633146106bf5760405163334bd91960e11b815260040160405180910390fd5b6106c98282610acb565b505050565b60006106d981610a02565b600084116107135760405162461bcd60e51b8152602060048201526007602482015266125b9d985b1a5960ca1b60448201526064016103ca565b600354604051632770a7eb60e21b81526001600160a01b0387811660048301526024820187905290911690639dc29fac90604401600060405180830381600087803b15801561076157600080fd5b505af1158015610775573d6000803e3d6000fd5b50505050846001600160a01b03167ffc0199bf17c4717c8759abf223b055378a2188f763d674a93a023eea0998ac41858585426040516107b89493929190610e8a565b60405180910390a25050505050565b60006107d281610a02565b6107da610a0f565b6000868152600960205260409020600201546108285760405162461bcd60e51b815260206004820152600d60248201526c496e76616c696420747261646560981b60448201526064016103ca565b8382146108695760405162461bcd60e51b815260206004820152600f60248201526e098cadccee8d040dad2e6dac2e8c6d608b1b60448201526064016103ca565b6000805b85811015610954576003546001600160a01b03166340c10f1988888481811061089857610898610eb5565b90506020020160208101906108ad9190610ecb565b8787858181106108bf576108bf610eb5565b6040516001600160e01b031960e087901b1681526001600160a01b0390941660048501526020029190910135602483015250604401600060405180830381600087803b15801561090e57600080fd5b505af1158015610922573d6000803e3d6000fd5b5050505084848281811061093857610938610eb5565b905060200201358261094a9190610ee6565b915060010161086d565b506000878152600960209081526040918290206001015482519081529081018390524281830152905188917f749b2ac8562325522ef7e1cba0d73b4a39482ab91e980ceb669fb9913a6f93fb919081900360600190a25061057560018055565b6000918252602082815260408084206001600160a01b0393909316845291905290205460ff1690565b6000828152602081905260409020600101546109f881610a02565b6106908383610acb565b610a0c8133610b36565b50565b600260015403610a3257604051633ee5aeb560e01b815260040160405180910390fd5b6002600155565b6000610a4583836109b4565b610ac3576000838152602081815260408083206001600160a01b03861684529091529020805460ff19166001179055610a7b3390565b6001600160a01b0316826001600160a01b0316847f2f8788117e7eff1d82e926ec794901d17c78024a50270940304540a733656f0d60405160405180910390a4506001610362565b506000610362565b6000610ad783836109b4565b15610ac3576000838152602081815260408083206001600160a01b0386168085529252808320805460ff1916905551339286917ff6391f5c32d9c69d2a47ea670b442974b53935d1edc7fd64eb21e047a839171b9190a4506001610362565b610b4082826109b4565b610b6f5760405163e2517d3f60e01b81526001600160a01b0382166004820152602481018390526044016103ca565b5050565b600060208284031215610b8557600080fd5b81356001600160e01b031981168114610b9d57600080fd5b9392505050565b80356001600160a01b0381168114610bbb57600080fd5b919050565b60008083601f840112610bd257600080fd5b50813567ffffffffffffffff811115610bea57600080fd5b602083019150836020828501011115610c0257600080fd5b9250929050565b600080600080600060808688031215610c2157600080fd5b610c2a86610ba4565b94506020860135935060408601359250606086013567ffffffffffffffff811115610c5457600080fd5b610c6088828901610bc0565b969995985093965092949392505050565b600060208284031215610c8357600080fd5b5035919050565b60008060408385031215610c9d57600080fd5b50508035926020909101359150565b60008060408385031215610cbf57600080fd5b82359150610ccf60208401610ba4565b90509250929050565b60008060008060608587031215610cee57600080fd5b610cf785610ba4565b935060208501359250604085013567ffffffffffffffff811115610d1a57600080fd5b610d2687828801610bc0565b95989497509550505050565b60008083601f840112610d4457600080fd5b50813567ffffffffffffffff811115610d5c57600080fd5b6020830191508360208260051b8501011115610c0257600080fd5b600080600080600060608688031215610d8f57600080fd5b85359450602086013567ffffffffffffffff811115610dad57600080fd5b610db988828901610d32565b909550935050604086013567ffffffffffffffff811115610dd957600080fd5b610c6088828901610d32565b81835281816020850137506000828201602090810191909152601f909101601f19169091010190565b838152604060208201526000610e28604083018486610de5565b95945050505050565b848152836020820152606060408201526000610e51606083018486610de5565b9695505050505050565b634e487b7160e01b600052601160045260246000fd5b600060018201610e8357610e83610e5b565b5060010190565b848152606060208201526000610ea4606083018587610de5565b905082604083015295945050505050565b634e487b7160e01b600052603260045260246000fd5b600060208284031215610edd57600080fd5b610b9d82610ba4565b8082018082111561036257610362610e5b56fea264697066735822122072ae88fb9da0f4a21396c0857015ce7ef1a35d55bf264b7132b1e9c8267c895664736f6c634300081c0033",
  "devdoc": {
    "errors": {
      "AccessControlBadConfirmation()": [
        {
          "details": "The caller of a function is not the expected one. NOTE: Don't confuse with {AccessControlUnauthorizedAccount}."
        }
      ],
      "AccessControlUnauthorizedAccount(address,bytes32)": [
        {
          "details": "The `account` is missing a role."
        }
      ],
      "ReentrancyGuardReentrantCall()": [
        {
          "details": "Unauthorized reentrant call."
        }
      ]
    },
    "events": {
      "RoleAdminChanged(bytes32,bytes32,bytes32)": {
        "details": "Emitted when `newAdminRole` is set as ``role``'s admin role, replacing `previousAdminRole` `DEFAULT_ADMIN_ROLE` is the starting admin for all roles, despite {RoleAdminChanged} not being emitted to signal this."
      },
      "RoleGranted(bytes32,address,address)": {
        "details": "Emitted when `account` is granted `role`. `sender` is the account that originated the contract call. This account bears the admin role (for the granted role). Expected in cases where the role was granted using the internal {AccessControl-_grantRole}."
      },
      "RoleRevoked(bytes32,address,address)": {
        "details": "Emitted when `account` is revoked `role`. `sender` is the account that originated the contract call:   - if using `revokeRole`, it is the admin role bearer   - if using `renounceRole`, it is the role bearer (i.e. `account`)"
      }
    },
    "kind": "dev",
    "methods": {
      "getRoleAdmin(bytes32)": {
        "details": "Returns the admin role that controls `role`. See {grantRole} and {revokeRole}. To change a role's admin, use {_setRoleAdmin}."
      },
      "grantRole(bytes32,address)": {
        "details": "Grants `role` to `account`. If `account` had not been already granted `role`, emits a {RoleGranted} event. Requirements: - the caller must have ``role``'s admin role. May emit a {RoleGranted} event."
      },
      "hasRole(bytes32,address)": {
        "details": "Returns `true` if `account` has been granted `role`."
      },
      "renounceRole(bytes32,address)": {
        "details": "Revokes `role` from the calling account. Roles are often managed via {grantRole} and {revokeRole}: this function's purpose is to provide a mechanism for accounts to lose their privileges if they are compromised (such as when a trusted device is misplaced). If the calling account had been revoked `role`, emits a {RoleRevoked} event. Requirements: - the caller must be `callerConfirmation`. May emit a {RoleRevoked} event."
      },
      "revokeRole(bytes32,address)": {
        "details": "Revokes `role` from `account`. If `account` had been granted `role`, emits a {RoleRevoked} event. Requirements: - the caller must have ``role``'s admin role. May emit a {RoleRevoked} event."
      },
      "supportsInterface(bytes4)": {
        "details": "Returns true if this contract implements the interface defined by `interfaceId`. See the corresponding https://eips.ethereum.org/EIPS/eip-165#how-interfaces-are-identified[ERC section] to learn more about how these ids are created. This function call must use less than 30 000 gas."
      }
    },
    "version": 1
  },
  "userdoc": {
    "kind": "user",
    "methods": {},
    "version": 1
  },
  "storageLayout": {
    "storage": [
      {
        "astId": 27,
        "contract": "contracts/HospitalFinancials.sol:HospitalFinancials",
        "label": "_roles",
        "offset": 0,
        "slot": "0",
        "type": "t_mapping(t_bytes32,t_struct(RoleData)22_storage)"
      },
      {
        "astId": 1176,
        "contract": "contracts/HospitalFinancials.sol:HospitalFinancials",
        "label": "_status",
        "offset": 0,
        "slot": "1",
        "type": "t_uint256"
      },
      {
        "astId": 1428,
        "contract": "contracts/HospitalFinancials.sol:HospitalFinancials",
        "label": "assetToken",
        "offset": 0,
        "slot": "2",
        "type": "t_contract(AssetToken)1359"
      },
      {
        "astId": 1431,
        "contract": "contracts/HospitalFinancials.sol:HospitalFinancials",
        "label": "healthToken",
        "offset": 0,
        "slot": "3",
        "type": "t_contract(HealthToken)1415"
      },
      {
        "astId": 1433,
        "contract": "contracts/HospitalFinancials.sol:HospitalFinancials",
        "label": "hospitalWallet",
        "offset": 0,
        "slot": "4",
        "type": "t_address"
      },
      {
        "astId": 1437,
        "contract": "contracts/HospitalFinancials.sol:HospitalFinancials",
        "label": "depositProcessed",
        "offset": 0,
        "slot": "5",
        "type": "t_mapping(t_uint256,t_bool)"
      },
      {
        "astId": 1441,
        "contract": "contracts/HospitalFinancials.sol:HospitalFinancials",
        "label": "depositOwner",
        "offset": 0,
        "slot": "6",
        "type": "t_mapping(t_uint256,t_address)"
      },
      {
        "astId": 1445,
        "contract": "contracts/HospitalFinancials.sol:HospitalFinancials",
        "label": "depositAmountAT",
        "offset": 0,
        "slot": "7",
        "type": "t_mapping(t_uint256,t_uint256)"
      },
      {
        "astId": 1455,
        "contract": "contracts/HospitalFinancials.sol:HospitalFinancials",
        "label": "nextTradeId",
        "offset": 0,
        "slot": "8",
        "type": "t_uint256"
      },
      {
        "astId": 1460,
        "contract": "contracts/HospitalFinancials.sol:HospitalFinancials",
        "label": "trades",
        "offset": 0,
        "slot": "9",
        "type": "t_mapping(t_uint256,t_struct(Trade)1452_storage)"
      }
    ],
    "types": {
      "t_address": {
        "encoding": "inplace",
        "label": "address",
        "numberOfBytes": "20"
      },
      "t_bool": {
        "encoding": "inplace",
        "label": "bool",
        "numberOfBytes": "1"
      },
      "t_bytes32": {
        "encoding": "inplace",
        "label": "bytes32",
        "numberOfBytes": "32"
      },
      "t_contract(AssetToken)1359": {
        "encoding": "inplace",
        "label": "contract AssetToken",
        "numberOfBytes": "20"
      },
      "t_contract(HealthToken)1415": {
        "encoding": "inplace",
        "label": "contract HealthToken",
        "numberOfBytes": "20"
      },
      "t_mapping(t_address,t_bool)": {
        "encoding": "mapping",
        "key": "t_address",
        "label": "mapping(address => bool)",
        "numberOfBytes": "32",
        "value": "t_bool"
      },
      "t_mapping(t_bytes32,t_struct(RoleData)22_storage)": {
        "encoding": "mapping",
        "key": "t_bytes32",
        "label": "mapping(bytes32 => struct AccessControl.RoleData)",
        "numberOfBytes": "32",
        "value": "t_struct(RoleData)22_storage"
      },
      "t_mapping(t_uint256,t_address)": {
        "encoding": "mapping",
        "key": "t_uint256",
        "label": "mapping(uint256 => address)",
        "numberOfBytes": "32",
        "value": "t_address"
      },
      "t_mapping(t_uint256,t_bool)": {
        "encoding": "mapping",
        "key": "t_uint256",
        "label": "mapping(uint256 => bool)",
        "numberOfBytes": "32",
        "value": "t_bool"
      },
      "t_mapping(t_uint256,t_struct(Trade)1452_storage)": {
        "encoding": "mapping",
        "key": "t_uint256",
        "label": "mapping(uint256 => struct HospitalFinancials.Trade)",
        "numberOfBytes": "32",
        "value": "t_struct(Trade)1452_storage"
      },
      "t_mapping(t_uint256,t_uint256)": {
        "encoding": "mapping",
        "key": "t_uint256",
        "label": "mapping(uint256 => uint256)",
        "numberOfBytes": "32",
        "value": "t_uint256"
      },
      "t_struct(RoleData)22_storage": {
        "encoding": "inplace",
        "label": "struct AccessControl.RoleData",
        "members": [
          {
            "astId": 19,
            "contract": "contracts/HospitalFinancials.sol:HospitalFinancials",
            "label": "hasRole",
            "offset": 0,
            "slot": "0",
            "type": "t_mapping(t_address,t_bool)"
          },
          {
            "astId": 21,
            "contract": "contracts/HospitalFinancials.sol:HospitalFinancials",
            "label": "adminRole",
            "offset": 0,
            "slot": "1",
            "type": "t_bytes32"
          }
        ],
        "numberOfBytes": "64"
      },
      "t_struct(Trade)1452_storage": {
        "encoding": "inplace",
        "label": "struct HospitalFinancials.Trade",
        "members": [
          {
            "astId": 1447,
            "contract": "contracts/HospitalFinancials.sol:HospitalFinancials",
            "label": "investedAT",
            "offset": 0,
            "slot": "0",
            "type": "t_uint256"
          },
          {
            "astId": 1449,
            "contract": "contracts/HospitalFinancials.sol:HospitalFinancials",
            "label": "profitEarned",
            "offset": 0,
            "slot": "1",
            "type": "t_uint256"
          },
          {
            "astId": 1451,
            "contract": "contracts/HospitalFinancials.sol:HospitalFinancials",
            "label": "timestamp",
            "offset": 0,
            "slot": "2",
            "type": "t_uint256"
          }
        ],
        "numberOfBytes": "96"
      },
      "t_uint256": {
        "encoding": "inplace",
        "label": "uint256",
        "numberOfBytes": "32"
      }
    }
  }
}