{
  "_format": "hh3-artifact-1",
  "contractName": "HospitalFinancials",
  "sourceName": "contracts/HospitalFinancials.sol",
  "abi": [
    {
      "inputs": [
        {
          "internalType": "address",
          "name": "_assetToken",
          "type": "address"
        },
        {
          "internalType": "address",
          "name": "_healthToken",
          "type": "address"
        },
        {
          "internalType": "address",
          "name": "admin",
          "type": "address"
        },
        {
          "internalType": "address",
          "name": "_hospitalWallet",
          "type": "address"
        }
      ],
      "stateMutability": "nonpayable",
      "type": "constructor"
    },
    {
      "inputs": [],
      "name": "AccessControlBadConfirmation",
      "type": "error"
    },
    {
      "inputs": [
        {
          "internalType": "address",
          "name": "account",
          "type": "address"
        },
        {
          "internalType": "bytes32",
          "name": "neededRole",
          "type": "bytes32"
        }
      ],
      "name": "AccessControlUnauthorizedAccount",
      "type": "error"
    },
    {
      "inputs": [],
      "name": "ReentrancyGuardReentrantCall",
      "type": "error"
    },
    {
      "anonymous": false,
      "inputs": [
        {
          "indexed": true,
          "internalType": "address",
          "name": "patient",
          "type": "address"
        },
        {
          "indexed": true,
          "internalType": "uint256",
          "name": "depositId",
          "type": "uint256"
        },
        {
          "indexed": false,
          "internalType": "uint256",
          "name": "amountAT",
          "type": "uint256"
        },
        {
          "indexed": false,
          "internalType": "uint256",
          "name": "timestamp",
          "type": "uint256"
        },
        {
          "indexed": false,
          "internalType": "string",
          "name": "metadata",
          "type": "string"
        }
      ],
      "name": "AssetTokenMinted",
      "type": "event"
    },
    {
      "anonymous": false,
      "inputs": [
        {
          "indexed": true,
          "internalType": "address",
          "name": "patient",
          "type": "address"
        },
        {
          "indexed": false,
          "internalType": "uint256",
          "name": "amountHT",
          "type": "uint256"
        },
        {
          "indexed": false,
          "internalType": "string",
          "name": "serviceType",
          "type": "string"
        },
        {
          "indexed": false,
          "internalType": "uint256",
          "name": "timestamp",
          "type": "uint256"
        }
      ],
      "name": "HealthTokenRedeemed",
      "type": "event"
    },
    {
      "anonymous": false,
      "inputs": [
        {
          "indexed": true,
          "internalType": "uint256",
          "name": "tradeId",
          "type": "uint256"
        },
        {
          "indexed": false,
          "internalType": "uint256",
          "name": "totalProfit",
          "type": "uint256"
        },
        {
          "indexed": false,
          "internalType": "uint256",
          "name": "distributedHT",
          "type": "uint256"
        },
        {
          "indexed": false,
          "internalType": "uint256",
          "name": "timestamp",
          "type": "uint256"
        }
      ],
      "name": "ProfitDistributed",
      "type": "event"
    },
    {
      "anonymous": false,
      "inputs": [
        {
          "indexed": true,
          "internalType": "bytes32",
          "name": "role",
          "type": "bytes32"
        },
        {
          "indexed": true,
          "internalType": "bytes32",
          "name": "previousAdminRole",
          "type": "bytes32"
        },
        {
          "indexed": true,
          "internalType": "bytes32",
          "name": "newAdminRole",
          "type": "bytes32"
        }
      ],
      "name": "RoleAdminChanged",
      "type": "event"
    },
    {
      "anonymous": false,
      "inputs": [
        {
          "indexed": true,
          "internalType": "bytes32",
          "name": "role",
          "type": "bytes32"
        },
        {
          "indexed": true,
          "internalType": "address",
          "name": "account",
          "type": "address"
        },
        {
          "indexed": true,
          "internalType": "address",
          "name": "sender",
          "type": "address"
        }
      ],
      "name": "RoleGranted",
      "type": "event"
    },
    {
      "anonymous": false,
      "inputs": [
        {
          "indexed": true,
          "internalType": "bytes32",
          "name": "role",
          "type": "bytes32"
        },
        {
          "indexed": true,
          "internalType": "address",
          "name": "account",
          "type": "address"
        },
        {
          "indexed": true,
          "internalType": "address",
          "name": "sender",
          "type": "address"
        }
      ],
      "name": "RoleRevoked",
      "type": "event"
    },
    {
      "anonymous": false,
      "inputs": [
        {
          "indexed": true,
          "internalType": "uint256",
          "name": "tradeId",
          "type": "uint256"
        },
        {
          "indexed": false,
          "internalType": "uint256",
          "name": "investedAT",
          "type": "uint256"
        },
        {
          "indexed": false,
          "internalType": "uint256",
          "name": "profitEarned",
          "type": "uint256"
        },
        {
          "indexed": false,
          "internalType": "uint256",
          "name": "timestamp",
          "type": "uint256"
        }
      ],
      "name": "TradeRecorded",
      "type": "event"
    },
    {
      "inputs": [],
      "name": "BANK_ROLE",
      "outputs": [
        {
          "internalType": "bytes32",
          "name": "",
          "type": "bytes32"
        }
      ],
      "stateMutability": "view",
      "type": "function"
    },
    {
      "inputs": [],
      "name": "DEFAULT_ADMIN_ROLE",
      "outputs": [
        {
          "internalType": "bytes32",
          "name": "",
          "type": "bytes32"
        }
      ],
      "stateMutability": "view",
      "type": "function"
    },
    {
      "inputs": [],
      "name": "FINANCE_ROLE",
      "outputs": [
        {
          "internalType": "bytes32",
          "name": "",
          "type": "bytes32"
        }
      ],
      "stateMutability": "view",
      "type": "function"
    },
    {
      "inputs": [],
      "name": "assetToken",
      "outputs": [
        {
          "internalType": "contract AssetToken",
          "name": "",
          "type": "address"
        }
      ],
      "stateMutability": "view",
      "type": "function"
    },
    {
      "inputs": [
        {
          "internalType": "uint256",
          "name": "",
          "type": "uint256"
        }
      ],
      "name": "depositAmountAT",
      "outputs": [
        {
          "internalType": "uint256",
          "name": "",
          "type": "uint256"
        }
      ],
      "stateMutability": "view",
      "type": "function"
    },
    {
      "inputs": [
        {
          "internalType": "uint256",
          "name": "",
          "type": "uint256"
        }
      ],
      "name": "depositOwner",
      "outputs": [
        {
          "internalType": "address",
          "name": "",
          "type": "address"
        }
      ],
      "stateMutability": "view",
      "type": "function"
    },
    {
      "inputs": [
        {
          "internalType": "uint256",
          "name": "",
          "type": "uint256"
        }
      ],
      "name": "depositProcessed",
      "outputs": [
        {
          "internalType": "bool",
          "name": "",
          "type": "bool"
        }
      ],
      "stateMutability": "view",
      "type": "function"
    },
    {
      "inputs": [
        {
          "internalType": "uint256",
          "name": "tradeId",
          "type": "uint256"
        },
        {
          "internalType": "address[]",
          "name": "recipients",
          "type": "address[]"
        },
        {
          "internalType": "uint256[]",
          "name": "amountsHT",
          "type": "uint256[]"
        }
      ],
      "name": "distributeProfit",
      "outputs": [],
      "stateMutability": "nonpayable",
      "type": "function"
    },
    {
      "inputs": [
        {
          "internalType": "bytes32",
          "name": "role",
          "type": "bytes32"
        }
      ],
      "name": "getRoleAdmin",
      "outputs": [
        {
          "internalType": "bytes32",
          "name": "",
          "type": "bytes32"
        }
      ],
      "stateMutability": "view",
      "type": "function"
    },
    {
      "inputs": [
        {
          "internalType": "bytes32",
          "name": "role",
          "type": "bytes32"
        },
        {
          "internalType": "address",
          "name": "account",
          "type": "address"
        }
      ],
      "name": "grantRole",
      "outputs": [],
      "stateMutability": "nonpayable",
      "type": "function"
    },
    {
      "inputs": [
        {
          "internalType": "bytes32",
          "name": "role",
          "type": "bytes32"
        },
        {
          "internalType": "address",
          "name": "account",
          "type": "address"
        }
      ],
      "name": "hasRole",
      "outputs": [
        {
          "internalType": "bool",
          "name": "",
          "type": "bool"
        }
      ],
      "stateMutability": "view",
      "type": "function"
    },
    {
      "inputs": [],
      "name": "healthToken",
      "outputs": [
        {
          "internalType": "contract HealthToken",
          "name": "",
          "type": "address"
        }
      ],
      "stateMutability": "view",
      "type": "function"
    },
    {
      "inputs": [],
      "name": "hospitalWallet",
      "outputs": [
        {
          "internalType": "address",
          "name": "",
          "type": "address"
        }
      ],
      "stateMutability": "view",
      "type": "function"
    },
    {
      "inputs": [
        {
          "internalType": "address",
          "name": "patient",
          "type": "address"
        },
        {
          "internalType": "uint256",
          "name": "depositId",
          "type": "uint256"
        },
        {
          "internalType": "uint256",
          "name": "amountAT",
          "type": "uint256"
        },
        {
          "internalType": "string",
          "name": "metadata",
          "type": "string"
        }
      ],
      "name": "mintAssetToken",
      "outputs": [],
      "stateMutability": "nonpayable",
      "type": "function"
    },
    {
      "inputs": [],
      "name": "nextTradeId",
      "outputs": [
        {
          "internalType": "uint256",
          "name": "",
          "type": "uint256"
        }
      ],
      "stateMutability": "view",
      "type": "function"
    },
    {
      "inputs": [
        {
          "internalType": "uint256",
          "name": "investedAT",
          "type": "uint256"
        },
        {
          "internalType": "uint256",
          "name": "profit",
          "type": "uint256"
        }
      ],
      "name": "recordTrade",
      "outputs": [
        {
          "internalType": "uint256",
          "name": "",
          "type": "uint256"
        }
      ],
      "stateMutability": "nonpayable",
      "type": "function"
    },
    {
      "inputs": [
        {
          "internalType": "address",
          "name": "patient",
          "type": "address"
        },
        {
          "internalType": "uint256",
          "name": "amountHT",
          "type": "uint256"
        },
        {
          "internalType": "string",
          "name": "serviceType",
          "type": "string"
        }
      ],
      "name": "redeemHealthToken",
      "outputs": [],
      "stateMutability": "nonpayable",
      "type": "function"
    },
    {
      "inputs": [
        {
          "internalType": "bytes32",
          "name": "role",
          "type": "bytes32"
        },
        {
          "internalType": "address",
          "name": "callerConfirmation",
          "type": "address"
        }
      ],
      "name": "renounceRole",
      "outputs": [],
      "stateMutability": "nonpayable",
      "type": "function"
    },
    {
      "inputs": [
        {
          "internalType": "bytes32",
          "name": "role",
          "type": "bytes32"
        },
        {
          "internalType": "address",
          "name": "account",
          "type": "address"
        }
      ],
      "name": "revokeRole",
      "outputs": [],
      "stateMutability": "nonpayable",
      "type": "function"
    },
    {
      "inputs": [
        {
          "internalType": "bytes4",
          "name": "interfaceId",
          "type": "bytes4"
        }
      ],
      "name": "supportsInterface",
      "outputs": [
        {
          "internalType": "bool",
          "name": "",
          "type": "bool"
        }
      ],
      "stateMutability": "view",
      "type": "function"
    },
    {
      "inputs": [
        {
          "internalType": "uint256",
          "name": "",
          "type": "uint256"
        }
      ],
      "name": "trades",
      "outputs": [
        {
          "internalType": "uint256",
          "name": "investedAT",
          "type": "uint256"
        },
        {
          "internalType": "uint256",
          "name": "profitEarned",
          "type": "uint256"
        },
        {
          "internalType": "uint256",
          "name": "timestamp",
          "type": "uint256"
        }
      ],
      "stateMutability": "view",
      "type": "function"
    }
  ],
  "bytecode": "0x60806040526001600855348015610014575f5ffd5b5060405161115938038061115983398101604081905261003391610177565b60018055600280546001600160a01b038087166001600160a01b03199283161790925560038054868416908316179055600480549284169290911691909117905561007e5f836100b3565b506100a97f940d6b1946ff1d2b5a9f1909219c3c81a370804b5ba0f91ec0828c99a2e6a681836100b3565b50505050506101c8565b5f828152602081815260408083206001600160a01b038516845290915281205460ff16610153575f838152602081815260408083206001600160a01b03861684529091529020805460ff1916600117905561010b3390565b6001600160a01b0316826001600160a01b0316847f2f8788117e7eff1d82e926ec794901d17c78024a50270940304540a733656f0d60405160405180910390a4506001610156565b505f5b92915050565b80516001600160a01b0381168114610172575f5ffd5b919050565b5f5f5f5f6080858703121561018a575f5ffd5b6101938561015c565b93506101a16020860161015c565b92506101af6040860161015c565b91506101bd6060860161015c565b905092959194509250565b610f84806101d55f395ff3fe608060405234801561000f575f5ffd5b5060043610610132575f3560e01c806336568abe116100b457806391d148541161007957806391d14854146102f55780639edd763414610308578063a217fddf14610327578063c6b0ac851461032e578063c7a7aab014610341578063d547741f14610363575f5ffd5b806336568abe146102a05780635cec902f146102b3578063641c39c9146102c657806370144330146102d9578063813ad083146102ec575f5ffd5b8063248a9ca3116100fa578063248a9ca31461021c57806328cf8bb01461023e578063298771e8146102665780632f2ff15d14610279578063349b59541461028c575f5ffd5b806301ffc9a7146101365780630e7ec4501461015e5780630eb71432146101735780631083f761146101a85780631e6c598e146101d3575b5f5ffd5b610149610144366004610bd4565b610376565b60405190151581526020015b60405180910390f35b61017161016c366004610c62565b6103ac565b005b61019a7f591fa5458fe051cc8c02c405479bd38e00713c98dbd3db209d982048f1e638fa81565b604051908152602001610155565b6002546101bb906001600160a01b031681565b6040516001600160a01b039091168152602001610155565b6102016101e1366004610cc5565b60096020525f908152604090208054600182015460029092015490919083565b60408051938452602084019290925290820152606001610155565b61019a61022a366004610cc5565b5f9081526020819052604090206001015490565b6101bb61024c366004610cc5565b60066020525f90815260409020546001600160a01b031681565b61019a610274366004610cdc565b6105d3565b610171610287366004610cfc565b6106ca565b61019a5f516020610f2f5f395f51905f5281565b6101716102ae366004610cfc565b6106f4565b6101716102c1366004610d26565b61072c565b6004546101bb906001600160a01b031681565b6101716102e7366004610dbd565b61082b565b61019a60085481565b610149610303366004610cfc565b610a1c565b61019a610316366004610cc5565b60076020525f908152604090205481565b61019a5f81565b6003546101bb906001600160a01b031681565b61014961034f366004610cc5565b60056020525f908152604090205460ff1681565b610171610371366004610cfc565b610a44565b5f6001600160e01b03198216637965db0b60e01b14806103a657506301ffc9a760e01b6001600160e01b03198316145b92915050565b7f591fa5458fe051cc8c02c405479bd38e00713c98dbd3db209d982048f1e638fa6103d681610a68565b6103de610a75565b5f8581526005602052604090205460ff16156104355760405162461bcd60e51b8152602060048201526011602482015270105b1c9958591e481c1c9bd8d95cdcd959607a1b60448201526064015b60405180910390fd5b5f84116104755760405162461bcd60e51b815260206004820152600e60248201526d16995c9bc8105508185b5bdd5b9d60921b604482015260640161042c565b5f858152600560209081526040808320805460ff191660011790556006825280832080546001600160a01b038b81166001600160a01b0319909216821790925560079093529281902087905560025490516340c10f1960e01b8152600481019290925260248201879052909116906340c10f19906044015f604051808303815f87803b158015610503575f5ffd5b505af1158015610515573d5f5f3e3d5ffd5b50506002546040516317ae9dc560e11b81526001600160a01b039091169250632f5d3b8a915061054d90889087908790600401610e4d565b5f604051808303815f87803b158015610564575f5ffd5b505af1158015610576573d5f5f3e3d5ffd5b5050505084866001600160a01b03167f44d1f88809e6af47cf8cd0b8f10fa1c2ed9aedd0c0fb7d09c5a7635c885d8448864287876040516105ba9493929190610e6f565b60405180910390a36105cb60018055565b505050505050565b5f5f516020610f2f5f395f51905f526105eb81610a68565b5f841161062e5760405162461bcd60e51b8152602060048201526011602482015270125b9d985b1a5908105508185b5bdd5b9d607a1b604482015260640161042c565b600880545f918261063e83610eac565b9091555060408051606080820183528882526020808301898152428486018181525f888152600985528790209551865591516001860155905160029094019390935583518a81529081018990529283019190915291925082917f38b5d7b0dff686b35d3f517288de21b8b4b6991f0948bcf8a26019dd9a923694910160405180910390a2949350505050565b5f828152602081905260409020600101546106e481610a68565b6106ee8383610a9f565b50505050565b6001600160a01b038116331461071d5760405163334bd91960e11b815260040160405180910390fd5b6107278282610b2e565b505050565b5f516020610f2f5f395f51905f5261074381610a68565b5f841161077c5760405162461bcd60e51b8152602060048201526007602482015266125b9d985b1a5960ca1b604482015260640161042c565b600354604051632770a7eb60e21b81526001600160a01b0387811660048301526024820187905290911690639dc29fac906044015f604051808303815f87803b1580156107c7575f5ffd5b505af11580156107d9573d5f5f3e3d5ffd5b50505050846001600160a01b03167ffc0199bf17c4717c8759abf223b055378a2188f763d674a93a023eea0998ac418585854260405161081c9493929190610ec4565b60405180910390a25050505050565b5f516020610f2f5f395f51905f5261084281610a68565b61084a610a75565b5f868152600960205260409020600201546108975760405162461bcd60e51b815260206004820152600d60248201526c496e76616c696420747261646560981b604482015260640161042c565b8382146108d85760405162461bcd60e51b815260206004820152600f60248201526e098cadccee8d040dad2e6dac2e8c6d608b1b604482015260640161042c565b5f805b858110156109bd576003546001600160a01b03166340c10f1988888481811061090657610906610eee565b905060200201602081019061091b9190610f02565b87878581811061092d5761092d610eee565b6040516001600160e01b031960e087901b1681526001600160a01b03909416600485015260200291909101356024830152506044015f604051808303815f87803b158015610979575f5ffd5b505af115801561098b573d5f5f3e3d5ffd5b505050508484828181106109a1576109a1610eee565b90506020020135826109b39190610f1b565b91506001016108db565b505f878152600960209081526040918290206001015482519081529081018390524281830152905188917f749b2ac8562325522ef7e1cba0d73b4a39482ab91e980ceb669fb9913a6f93fb919081900360600190a2506105cb60018055565b5f918252602082815260408084206001600160a01b0393909316845291905290205460ff1690565b5f82815260208190526040902060010154610a5e81610a68565b6106ee8383610b2e565b610a728133610b97565b50565b600260015403610a9857604051633ee5aeb560e01b815260040160405180910390fd5b6002600155565b5f610aaa8383610a1c565b610b27575f838152602081815260408083206001600160a01b03861684529091529020805460ff19166001179055610adf3390565b6001600160a01b0316826001600160a01b0316847f2f8788117e7eff1d82e926ec794901d17c78024a50270940304540a733656f0d60405160405180910390a45060016103a6565b505f6103a6565b5f610b398383610a1c565b15610b27575f838152602081815260408083206001600160a01b0386168085529252808320805460ff1916905551339286917ff6391f5c32d9c69d2a47ea670b442974b53935d1edc7fd64eb21e047a839171b9190a45060016103a6565b610ba18282610a1c565b610bd05760405163e2517d3f60e01b81526001600160a01b03821660048201526024810183905260440161042c565b5050565b5f60208284031215610be4575f5ffd5b81356001600160e01b031981168114610bfb575f5ffd5b9392505050565b80356001600160a01b0381168114610c18575f5ffd5b919050565b5f5f83601f840112610c2d575f5ffd5b50813567ffffffffffffffff811115610c44575f5ffd5b602083019150836020828501011115610c5b575f5ffd5b9250929050565b5f5f5f5f5f60808688031215610c76575f5ffd5b610c7f86610c02565b94506020860135935060408601359250606086013567ffffffffffffffff811115610ca8575f5ffd5b610cb488828901610c1d565b969995985093965092949392505050565b5f60208284031215610cd5575f5ffd5b5035919050565b5f5f60408385031215610ced575f5ffd5b50508035926020909101359150565b5f5f60408385031215610d0d575f5ffd5b82359150610d1d60208401610c02565b90509250929050565b5f5f5f5f60608587031215610d39575f5ffd5b610d4285610c02565b935060208501359250604085013567ffffffffffffffff811115610d64575f5ffd5b610d7087828801610c1d565b95989497509550505050565b5f5f83601f840112610d8c575f5ffd5b50813567ffffffffffffffff811115610da3575f5ffd5b6020830191508360208260051b8501011115610c5b575f5ffd5b5f5f5f5f5f60608688031215610dd1575f5ffd5b85359450602086013567ffffffffffffffff811115610dee575f5ffd5b610dfa88828901610d7c565b909550935050604086013567ffffffffffffffff811115610e19575f5ffd5b610cb488828901610d7c565b81835281816020850137505f828201602090810191909152601f909101601f19169091010190565b838152604060208201525f610e66604083018486610e25565b95945050505050565b848152836020820152606060408201525f610e8e606083018486610e25565b9695505050505050565b634e487b7160e01b5f52601160045260245ffd5b5f60018201610ebd57610ebd610e98565b5060010190565b848152606060208201525f610edd606083018587610e25565b905082604083015295945050505050565b634e487b7160e01b5f52603260045260245ffd5b5f60208284031215610f12575f5ffd5b610bfb82610c02565b808201808211156103a6576103a6610e9856fe940d6b1946ff1d2b5a9f1909219c3c81a370804b5ba0f91ec0828c99a2e6a681a2646970667358221220725314488379cd59ea891af253c9d20a86eb0db7a5827e8af6c63485b06564ba64736f6c634300081c0033",
  "linkReferences": {},
  "deployedLinkReferences": {},
  "immutableReferences": {},
  "inputSourceName": "project/contracts/HospitalFinancials.sol",
  "buildInfoId": "solc-0_8_28-b643cb07a5d23eb0d63e6af85e8a8d92d12c5197"
}